:100000000C946F000C94C0180C94C0180C94C01879
:100010000C94C0180C94C0180C94C0180C942512A1
:100020000C94FC110C94BC0D0C94C0180C94C018CA
:100030000C94C0180C94C0180C94C0180C94C018E0
:100040000C94C0180C94C0180C94C0180C94C018D0
:100050000C94C0180C94C0180C94FD100C946418E7
:100060000C94EE0C0C94C0180C94C0180C94C0188E
:100070000C94C0180C94C0180C94C0180C94C018A0
:100080000C94C0180C94C018841287129E128A1205
:100090009E128D1292129E1295129812600076F89E
:1000A0008076F877A40031AA77A4785880785878B9
:1000B000880032567888789C80789C78C800328690
:1000C00078C878CF8078CF78D30032B278D378E709
:1000D0008078E778EB0032B678EB78F58000809195
:1000E00001108F7C8060806898ED94BF8093011030
:1000F00011241FBECFEFCDBFDFE7DEBFECE9F0E09C
:1001000040E017C0B591A59135912591059107FD66
:100110000CC095918591EF01F92FE82F05900D9274
:10012000A217B307D9F7FE0104C01D92A217B307A7
:10013000E1F7ED3DF40731F70E94E1090C948A17CD
:04014000F894FFCF61
:0401440023C435C4D7
:030148002D24243F
:03014B002D24243C
:01014E0002AE
:01014F00822D
:10015000FF920F931F93CF93DF930F92CDB7DEB72C
:10016000082FCB01142F202F2F77F22E1982AE01EA
:100170004F5F5F4F612F0E94790D811100C12F2DBC
:1001800030E0233031050CF0FCC0143008F0FBC027
:10019000113041F018F0143060F408C08981806497
:1001A000898307C08981806C898303C089818068C5
:1001B000898300230CF46DC0E0E0FCE0838582FDC0
:1001C000FDCFF901EE0FFF1FEE0FFF1FEF5BF34FA7
:1001D00082E08083E0E0FCE0838582FDFDCFF901D1
:1001E000EE0FFF1FEE0FFF1FE05CF34F8DEF8083DC
:1001F000F901E295F295F07FFE27E07FFE27E05EB1
:10020000F7481086118689818783F901E55BFE47EF
:10021000808183FF20C0F901E295F295F07FFE27EF
:10022000E07FFE27E05EF748878180628783F901DF
:10023000E55BFE47808184FF16C0F901E295F295E7
:10024000F07FFE27E07FFE27E05EF7488781806130
:10025000878380E00BC0F901E55BFE47808184FD68
:1002600004C080E003C080E001C08BEFF901E55BD2
:10027000FE47908195FD88C022953295307F3227C8
:10028000207F3227F901E05EF748978198609783D5
:100290007BC0E0E0FCE0838582FDFDCFF901EE0F3D
:1002A000FF1FEE0FFF1FED5BF34F82E08083E0E066
:1002B000FCE0838582FDFDCFF901EE0FFF1FEE0FFD
:1002C000FF1FEE5BF34F8DEF8083F901E295F2950E
:1002D000F07FFE27E07FFE27E05DF7481082118265
:1002E0008981F901E295F295F07FFE27E07FFE27F4
:1002F000E05EF7488787F901E55BFE47808180FF74
:1003000020C0F901E295F295F07FFE27E07FFE27FD
:10031000E05EF748878580628787F901E55BFE47E5
:10032000808181FF16C0F901E295F295F07FFE27EA
:10033000E07FFE27E05EF74887858061878780E061
:100340000BC0F901E55BFE47808181FD04C080E0C0
:1003500003C080E001C08BEFF901E55BFE479081AF
:1003600092FD12C022953295307F3227207F3227AE
:10037000F901E05EF74897859860978705C08FEF91
:1003800003C08EEF01C08CEF0F90DF91CF911F91D2
:060390000F91FF9008959B
:10039600EF92FF920F931F93CF93DF93182F082F9F
:1003A6000F77202F30E0E901CC0FDD1F87FD219666
:1003B60088230CF061C0F901E295F295F07FFE27E3
:1003C600E07FFE27E05EF748878585FF0CC0229513
:1003D6003295307F3227207F3227F901E05EF748D9
:1003E600248935890BC022953295307F3227207FAC
:1003F6003227F901E05DF74820813181CE01880F6F
:10040600991F880F991F880F991FFE01EE0FFF1F76
:10041600E80FF91FEC51F84886819781820F931FE8
:1004260086839783248135818217930789F4CE01C9
:10043600880F991F880F991F880F991FFE01EE0FCD
:10044600FF1FE80FF91FEC51F848818180FF05C0B6
:10045600812F0E94EB02F82E84C0CE01880F991FCF
:10046600CC0FDD1FCC0FDD1FCC0FDD1FC80FD91F32
:10047600CC51D8481882A2C0F901E295F295F07FD6
:10048600FE27E07FFE27E05EF748E084F184CE0198
:10049600880F991F880F991F880F991FFE01EE0F6D
:1004A600FF1FE80FF91FEC51F848448155818681FA
:1004B6009781BA01681B790B6E157F0508F067C036
:1004C60022953295307F3227207F3227F901E05E70
:1004D600F748E484F5846E157F0509F458C0CE010B
:1004E600880F991FCC0FDD1FCC0FDD1FCC0FDD1F32
:1004F600C80FD91FCC51D84883E088830F2EF5EF5B
:10050600FF2EF02D3EC0CE01880F991F880F991F30
:10051600880F991FFE01EE0FFF1FE80FF91FEC5120
:10052600F848818180FF0EC0812F0E94A70ABC0176
:10053600C7010E948C16892B29F4812F0E94DB04A7
:10054600F82E0FC0CE01880F991FCC0FDD1FCC0FE0
:10055600DD1FCC0FDD1FC80FD91FCC51D84818821C
:100566002DC0CE01880F991FCC0FDD1FCC0FDD1FCC
:10057600CC0FDD1FC80FD91FCC51D84888818130D8
:10058600F9F0812F8078802B0E947E1119C08E0D84
:100596009F1D9E01220F331F220F331F220F331F71
:1005A600FE01EE0FFF1FE20FF31FEC51F8488683A2
:1005B60097838417950708F0A6CFB6CFF12CE1CF25
:1005C6008F2DDF91CF911F910F91FF90EF9008959E
:1005D600DF92EF92FF920F931F93CF93DF93082F33
:1005E6000F7710E0E801CC0FDD1F87FD21968823E9
:1005F6000CF0E7C09E01220F331F220F331F220F7C
:10060600331FFE01EE0FFF1FE20FF31FEC51F848F8
:1006160091E09083E480F58026813781E21AF30A1F
:1006260009F057C0CE01880F991F880F991F880FB0
:10063600991FFE01EE0FFF1FE80FF91FEC51F84856
:10064600818180FF36C0F801E295F295F07FFE27A2
:10065600E07FFE27E05DF74810821182F801E295FF
:10066600F295F07FFE27E07FFE27E05EF748148ACA
:10067600158AE0E0FCE0838582FDFDCF000F111FA7
:10068600000F111FF801EE5BF34F82E08083CE016D
:10069600880F991FCC0FDD1FCC0FDD1FCC0FDD1F80
:1006A600C80FD91FCB51D84888818E7F888380E0B8
:1006B60089C0CE01880F991FCC0FDD1FCC0FDD1F1F
:1006C600CC0FDD1FC80FD91FCC51D848188280E047
:1006D60079C0D82E0E94A70ABC01F801E85BFE4744
:1006E600808180FD03C06E157F0568F1CE01880FFD
:1006F600991F880F991F880F991FFE01EE0FFF1F84
:10070600E80FF91FEC51F848818180FF08C0C70146
:100716000E948C1621E0892B19F020E001C020E010
:10072600CE01880F991F880F991F880F991FFE0108
:10073600EE0FFF1FE80FF91FEB51F848808120FBF1
:1007460080F9808301C07B01CE01880F991FCC0FF1
:10075600DD1FCC0FDD1FCC0FDD1FC80FD91FCC51FD
:10076600D8486A817B818E819F81680F791F8D2D84
:100776000E94CF10811126C0F801E295F295F07F14
:10078600FE27E07FFE27E05DF748E082F182F80170
:10079600E295F295F07FFE27E07FFE27E05EF748C0
:1007A600148A158AE0E0FCE0938592FDFDCF000FE8
:1007B600111F000F111FF801EE5BF34F92E09083BB
:1007C60001C08DEFDF91CF911F910F91FF90EF90B8
:0407D600DF90089513
:1007DA000F931F93CF93DF93C82F8F7709F0DDC054
:1007EA00182F8C2F0E94A811D82F8111D9C080915F
:1007FA003877813009F45FC008F4CBC0823021F029
:10080A00833009F4BBC0CBC0C0688C2F0E94EB15A3
:10081A0020E1129FF0011124E05EF748048915894E
:10082A00080F191FC068B8018C2F0E940316C068F0
:10083A008C2F0E94D3150817190779F5EDE3F7E70E
:10084A0080819181080F191F0083118380913B7762
:10085A0090913C770817190729F480E00E94FC0D53
:10086A00D82F20C0E0914177F0914277309779F004
:10087A00099581110CC0C0688C2F0E941B166091CB
:10088A003B7770913C77C0688C2F0E94BB158C2FE8
:10089A0080680E94EB02D82F05C08C2F80680E94C6
:1008AA00EB02D82FE0E0FCE0838582FDFDCF80E4F7
:1008BA008093420C75C0CF778C2F0E94EB1520E1F4
:1008CA00129FF0011124E05EF74800851185080F98
:1008DA00191FCF77B8018C2F0E940316CF778C2F60
:1008EA000E94D31508171907D9F5EDE3F7E78081B8
:1008FA009181080F191F0083118380913B77909192
:10090A003C770817190729F481E00E94FC0DD82FBB
:10091A002CC0E0914177F09142773097A9F0099580
:10092A00811112C0CF778C2F0E941B1660913B77E2
:10093A0070913C77CF778C2F0E94BB158C2F8F77C5
:10094A000E94EB02D82F11C084E080933877E0E24E
:10095A00F8E787858460878787818460878305C0F5
:10096A008C2F8F770E94DB04D82FE0E0FCE0838590
:10097A0082FDFDCF80E48093400C12C0E091437762
:10098A00F0914477309709F009950E940B0CD82F03
:10099A0007C00E940B0CD82F03C0DEEF01C0DBEEAC
:0C09AA008D2FDF91CF911F910F910895C8
:1009B600CF92DF92EF92FF920F931F93CF93DF9325
:1009C600E82FEF77EE2EF12CE701CC0FDD1F87FD28
:1009D600219688230CF4ADC0C82ECE01880F991F2E
:1009E600880F991F880F991F8E01000F111F080F7E
:1009F600191F0C51184881E0F801808362817381C8
:100A060086819781680F791F8C2D0E94CF10D82E72
:100A16008C2D0E94A70ABC01F801248135818681AC
:100A26009781281B390BF701E85BFE47808183FD20
:100A360020C02617370768F4F701E295F295F07F94
:100A4600FE27E07FFE27E05EF74887818062878386
:100A560010C06217730708F49B01F701E295F2953F
:100A6600F07FFE27E07FFE27E05EF74887818F7DD7
:100A7600878321153105A9F4CE01880F991FCC0F64
:100A8600DD1FCC0FDD1FCC0FDD1FC80FD91FFE01E8
:100A9600EB51F84880818E7F8083CC51D8481882EC
:100AA6002CC0CE01880F991F880F991F880F991F98
:100AB600FE01EE0FFF1FE80FF91FEC51F848818188
:100AC60080FF09C0C9010E948C1641E0892B09F0FC
:100AD60040E0842F01C080E0AE01440F551FCC0FCB
:100AE600DD1FCC0FDD1FCC0FDD1FC40FD51FCB5173
:100AF600D848988180FB90F99883F701E295F295A2
:100B0600F07FFE27E07FFE27E05EF748108611861D
:100B160024873587E0E0FCE0838582FDFDCFF70181
:100B2600EE0FFF1FEE0FFF1FE05CF34F82E08083A6
:100B360004C00F2EFDEFDF2EF02D8D2DDF91CF910E
:0E0B46001F910F91FF90EF90DF90CF900895D8
:100B54008F929F92AF92BF92CF92DF92EF92FF92C9
:100B64000F931F93CF93DF9300D0CDB7DEB7E091FF
:100B7400F178F091F278309709F46DC0A42E962E96
:100B8400B82EE983FA83028113810E0F1F1FBE0161
:100B94006F5F7F4F84E00E94B114882E811177C06B
:100BA400E981FA81E017F10708F06CC0C12CD12C5F
:100BB4008B2D90E09C0121513748790192819B1142
:100BC40010C0D7019C91838198130BC060E0CF01C2
:100BD4000E940810811105C0B1E0BB1510F0F701A7
:100BE4001082AA2009F445C0E981FA818281B812F1
:100BF40037C08381891134C06F0132C0C114D1045C
:100C0400F1F009831A8340C0811141C0E981FA815E
:100C1400E017F10798F238C0C114D10491F061E0F3
:100C2400C6010E940810882E811132C0F1E0FB1524
:100C340068F0EB2DF0E0E151F748908229C0882E4E
:100C440027C00F2EFDED8F2EF02D22C00F2EF8EDB4
:100C54008F2EF02D1DC00F2EF2EE8F2EF02D18C00A
:100C6400BE016F5F7F4F84E00E94B1148D3D61F639
:100C7400C5CFBE016F5F7F4F84E00E94B1148D3DEC
:100C840019F6BFCFC12CD12CA110C6CF01C0882E1C
:100C9400882D0F900F90DF91CF911F910F91FF90AE
:100CA400EF90DF90CF90BF90AF909F908F9008957A
:100CB400CF93DF9380E094E0FC011482C0E4D4E09D
:100CC4001C82A0E6B4E014961C92149740EA54E007
:100CD40028E0FA01248320EDFC012083188224E01B
:100CE4002C932CE1FA012083FC01108A118A128AC8
:100CF400138A148A158A168A178A188A198A1A8AEC
:100D04001B8A1C8A1D8A1E8A1F8A50961C92509721
:100D140051961C92519752961C92529753961C923C
:100D2400539754961C92549755961C9255975696E1
:100D34001C92569757961C92FA01108A118A80E8E1
:100D4400828B138A148A158A88E8868B178AE0EEC8
:100D5400F5E01182108215821782108616821282A3
:100D640088EC98E18093E5789093E67889EC98E1B3
:100D74008093E3789093E4788AEC98E18093E17827
:100D84009093E2788BEC98E18093DF789093E0780D
:100D94008CEC98E18093DD789093DE788DEC98E18B
:100DA4008093DB789093DC788EEC98E18093D9780B
:100DB4009093DA788FEC98E18093D7789093D878F1
:100DC40080ED98E18093D5789093D67881ED98E181
:0E0DD4008093D3789093D478DF91CF910895D7
:100DE2008F929F92AF92BF92CF92DF92EF92FF9239
:100DF2000F931F93CF93DF9380E10E945B1784E0F0
:100E020080936504C0E0D0E60F2EF8EF8F2EF5E751
:100E12009F2EF02D0F2EF6E0AF2EF4E0BF2EF02D18
:100E22006894FF24F7F80F2EF5E0CF2EF4E0DF2EC2
:100E3200F02DEF2C0EC0F501E08289910E94A017DF
:100E4200F601F0820C171D07B1F7E8010815190524
:100E520021F08E010D5E1F4FEECF83E10E945B17E2
:100E620084E0809365040F2EF8E2AF2EBB24B39486
:100E7200F02D0F2EF6E0CF2EF4E0DF2EF02D10E84D
:100E82000F2EF5E0EF2EF4E0FF2EF02D012F0DC016
:100E9200F601008380EF0E94A017F70110832197CB
:100EA200B9F7F1E0AF1AB10819F0C3E1D0E0F0CF21
:100EB200B59BFECF84E00E945B17B59BFECF82E11B
:100EC2000E945B17B59BFECF82E00E945B17B59B29
:100ED200FECF86E990E00E947417DF91CF911F91B7
:100EE2000F91FF90EF90DF90CF90BF90AF909F90C7
:040EF2008F90089540
:100EF600EF92FF920F931F93CF93DF9300D0CDB75E
:100F0600DEB7962F8A017901883040F4863008F0E2
:100F16005EC0813031F08230C9F03FC08F3049F178
:100F26003CC0E091ED78F091EE78309709F459C025
:100F360080819181DA018D939C930190F081E02D5F
:100F4600808190E0F9018083918349C0BE016F5F83
:100F56007F4F892F0E94B70B81113AC0E981FA8130
:100F6600D801ED93FC9382819381F701808391836D
:100F760036C0E091ED78F091EE7884819581009706
:100F860091F1DA018D939C930480F581E02D8281A5
:100F96009381F9018083918322C0803230F12091C0
:100FA600F1783091F27829833A83BE016F5F7F4FE3
:100FB6000E94B11481110CC0E981FA81D801ED9328
:100FC600FC93808190E0F7018083918308C082E0E2
:100FD600D8011D921C92F7011082118208C080E090
:100FE60006C082EEF5CF82E0F3CF8EEDF1CF0F9003
:100FF6000F90DF91CF911F910F91FF90EF90089581
:10100600CF9381E080930B0C80913877843009F47C
:1010160076C0E0E0FCE0838582FDFDCF80E1809331
:10102600400CE0E0FCE0838582FDFDCF80E180930B
:10103600420CE0E2F8E7108A118A148A158A1486AF
:1010460015861086118688E0E8EFF6E7A5E4B7E78F
:1010560001900D928A95E1F7E0913F77F091407704
:10106600309709F44EC085E497E70995823069F414
:1010760084E080933877E0E2F8E7878584608787A5
:1010860087818460878380E03DC081113BC0809169
:101096003B7790913C77892B21F481E00E94FC0DEF
:1010A60031C010923D7710923E77C0E0C0688091C3
:1010B6004577882324F482E0809338770BC06091CB
:1010C600397770913A778C2F0E94CF10CF7781E0D5
:1010D600809338778C2F0E941B1660913977709118
:1010E6003A778C2F0E94A31560913B7770913C77DD
:1010F6008C2F0E94BB158C2F0E94ED0303C080E04D
:0811060001C08AEECF910895AB
:10110E00FF920F931F93CF93DF9300D0CDB7DEB72F
:10111E002091ED783091EE78232B09F460C0F82EF3
:10112E00E091F178F091F278309709F45CC0E983A0
:10113E00FA830481002309F456C0BE016F5F7F4F0E
:10114E0084E00E94B114182F811150C0A981BA8178
:10115E0012968C911297E82FF0E0E151F74820811A
:10116E0013969C91291308C040E060E00E94AA05E6
:10117E00182F015081113AC00111DFCF34C01092E7
:10118E00F1781092F27810E031C061EF78E78F2D90
:10119E000E94B70B182F811129C0E091F178F091C0
:1011AE00F278E983FA830481002301F1BE016F5FB7
:1011BE007F4F84E00E94B114182F811117C0E9816E
:1011CE00FA818381811108C041E060E082810E9432
:1011DE00AA050150811105C00111E8CF07C012EE1A
:1011EE0005C0182F03C0FF2051F2CFCF812F0F90D3
:0E11FE000F90DF91CF911F910F91FF900895F8
:10120C00CF93DF930E943418882349F00E94A618CC
:10121C00E0919478F0919578309709F009950E94B7
:10122C007D18882321F10E94AA18E0919678F091FC
:10123C009778309709F00995D0E0C0E080E0D0684D
:10124C0081114AC0D0788C2F8F77D82B8D2F0E948C
:10125C004B16DF77811103C08D2F0E944B16CF5F89
:10126C00CF77C33061F70E941A18C82F01C0C0E0B5
:10127C000E94EA17882359F00E9421180E94CE146C
:10128C00882321F00E943E15C82F01C0C0E00E94A7
:10129C003A18882349F00E94AE18E0919878F091A2
:1012AC009978309709F009950E944018882349F0E5
:1012BC000E94B218E0919A78F0919B78309709F0DF
:1012CC0009950E944618882349F00E94B61880E0C0
:1012DC000E942C0FC82F02C0DF77C1CF8C2FDF915B
:0412EC00CF91089501
:1012F000CF92DF92EF92FF920F931F93CF93DF93E2
:1013000000D0CDB7DEB70091ED781091EE78D8011E
:101310001696ED91FC911797309709F444C08823F5
:1013200041F00280F381E02D6E177F0789F082E0A3
:101330003DC0DA01ED93FC93D8011696ED91FC9136
:101340001797808190E0F9018083918380E02EC01F
:10135000D80118966D917C9119976115710529F145
:1013600079016A01082F69837A83813071F0C8F0AE
:1013700011E0BE016F5F7F4F83E00E94B1141F5FD9
:101380000113F7CF811112C001C080E0E981FA8119
:10139000D601ED93FC93208130E0F7012083318367
:1013A00005C081E003C082E001C082EE0F900F9083
:1013B000DF91CF911F910F91FF90EF90DF90CF9031
:0213C00008958E
:1013C200CF93DF930F92CDB7DEB70E94311780E043
:1013D2000E9458150E94A50C0E94F1120E94F1066B
:1013E20078940E946E10198207E211E0E12CF12C30
:1013F2000E94790E0E9420173FC08981823531F404
:1014020042E0B801C7010E94350D1CC0873531F496
:1014120040E0B801C7010E94350D14C0823431F496
:1014220041E0B801C7010E94350D0CC0833239F486
:101432000E94F10600E010E0E12CF12C1DC0803288
:10144200D9F413C089818332B9F00115110551F421
:1014520088E9E816F10471F08FEFE81AF80A07E25A
:1014620011E00AC00150110907C007E211E0E12CA6
:10147200F12C02C007E211E0CE0101960E94281869
:08148200882309F4BACFB4CFAE
:10148A000F931F93CF93DF9300D000D0CDB7DEB771
:10149A008C01DC011296EC91129713968C91803490
:1014AA0050F0E0918E78F0918F78309709F43FC030
:1014BA00C80109953FC0803248F0E0919078F091D8
:1014CA0091783097B1F1C801099534C01B821C820A
:1014DA0019821A82833079F4D80114966D917C911D
:1014EA0015979E012F5F3F4FAE014D5F5F4F8E2FC5
:1014FA000E94780909C09E012F5F3F4FAE014D5FE0
:10150A005F4F6E2F0E947B07811114C0F8018681FC
:10151A00978129813A818217930710F489839A83E4
:10152A0069817A818B819C810E948A1503C082E03D
:10153A0001C082E02496CDBFDEBFDF91CF911F911B
:04154A000F91089560
:10154E00982F9F7788233CF1892F90E0FC01E2953C
:10155E00F295F07FFE27E07FFE27E05EF7482781B9
:10156E00207C203C61F482959295907F9827807F15
:10157E009827FC01E05EF7489781977032C08295FC
:10158E009295907F9827807F9827FC01E05EF74820
:10159E009781937026C0892F90E0FC01E295F29519
:1015AE00F07FFE27E07FFE27E05EF7482785207C50
:1015BE00203C61F482959295907F9827807F9827A2
:1015CE00FC01E05EF748978597700BC08295929567
:1015DE00907F9827807F9827FC01E05EF7489785DB
:1015EE009370973051F028E030E0A90102C0440F0B
:1015FE00551F9A95E2F7CA0108958FEF93E008956B
:10160E0040E068ED80E690E00E94691840E068EDE9
:10161E0081E690E00E94691840E068ED85E690E072
:10162E000E94691840E068ED88E790E00E94691812
:10163E0040E268ED88E690E00E94691840E068EDAF
:10164E0089E690E00E94691840E068ED8AE690E035
:10165E000E94691840E068ED8CE790E00E946918DE
:10166E0040E068ED82E690E00E94691840E068ED87
:10167E0083E690E00E94691840E068ED84E690E011
:10168E000E94691840E068ED80E890E00E946918B9
:10169E0040E068ED85E890E00E94691844E168ED4D
:1016AE0086E690E00E946918E0E6F0E0858181FF11
:0416BE00FDCF0895BF
:1016C200CF93DF93EC019881892F807659F5992386
:1016D20024F48E819F81892BD9F160E070E080E053
:1016E20090E00E948A1588818F71813071F028F014
:1016F200823039F0833069F02DC0CE010E9477121A
:1017020032C0CE010E94A0122EC0CE010E947614D9
:101712002AC0E0919278F09193783097E9F0CE0167
:10172200099521C0803249F4E0919078F091917846
:101732003097A1F0CE01099516C0803489F4E0916A
:101742008E78F0918F78309769F0CE0109950BC0B1
:1017520089EE09C082E007C082E005C082E003C0D2
:0C17620082E001C082E0DF91CF91089589
:10176E00EF92FF920F931F93CF93DF9300D0CDB7DD
:10177E00DEB7E091ED78F091EE78A081B1815196CF
:10178E009C919817B8F1913039F482819381DB01E5
:10179E008D939C9380E02FC07B01082F82819381D3
:1017AE0089839A830190F081E02D118981E013C025
:1017BE00E981FA819581091751F0BE016F5F7F4F64
:1017CE0082E00E94B114811105C0115004C010E0D6
:1017DE0080E001C010E01111EBCF81110CC0E98146
:1017EE00FA819581091304C0D701ED93FC9303C0D0
:1017FE008DED01C081EE0F900F90DF91CF911F9173
:08180E000F91FF90EF90089587
:10181600CF93DF93C0E0CF778C2F0E943C0ED82F5A
:10182600811140C080E80E943C0ED82F81113AC039
:10183600E0E0FCE0838582FDFDCF8DEF8093400CD8
:10184600E0E0FCE0838582FDFDCF8DEF8093420CC6
:1018560068EF76E78C2F0E94A31568E070E08C2F66
:101866000E94BB158C2F0E941B1660E070E08C2F27
:101876000E943316E0E2F8E7108A118A148A158A64
:101886001486158610861186109243771092447737
:10189600109241771092427710923B7710923C77E4
:0C18A600109238778D2FDF91CF910895BC
:1018B2008F929F92AF92BF92CF92DF92EF92FF925E
:1018C2000F931F93CF93DF936B01B42EE52EF22E6D
:1018D2000E945B1784E080936504FF2041F1E601DA
:1018E2000B2D1E2DFA94EF2CF12C8FEFE81AF80A2B
:1018F200EC0CFD1C0F2EF6E08F2EF4E09F2EF02D47
:101902006894DD24D7F8CD2C0F2EF5E0AF2EF4E04D
:10191200BF2EF02DF401C08289910E94A017F80118
:1019220081938F01F501D082CE15DF0599F7DF9102
:10193200CF911F910F91FF90EF90DF90CF90BF90CA
:08194200AF909F908F90089573
:10194A00EF92FF921F93CF93DF9300D0CDB7DEB70C
:10195A0085E090E00E9474170F2EF5EAEF2EF4E06E
:10196A00FF2EF02D10E1F701108385E090E00E9430
:10197A0074171093A6048AE090E00E947417F70186
:10198A00108385E090E00E9474176EE080E00E9468
:10199A00D91685E090E00E9474178FEC898389E854
:1019AA008A8369E185EE0E94D91662E080EE0E9480
:1019BA00D91622E0AE014F5F5F4FBA0180E00E9464
:1019CA00590C0F900F90DF91CF911F91FF90EF90DC
:0219DA0008956E
:1019DC001F920F920FB60F9211242F933F934F9398
:1019EC005F936F937F938F939F93AF93BF93EF937B
:1019FC00FF93BD9B05C0E091DF78F091E0780995ED
:101A0C00BE9B05C0E091DD78F091DE780995BA9B1C
:101A1C0005C0E091D778F091D8780995BB9B05C0AB
:101A2C00E091D578F091D6780995BC9B05C0E091F2
:101A3C00D378F091D47809958FEF87BBFF91EF9114
:101A4C00BF91AF919F918F917F916F915F914F91CA
:0E1A5C003F912F910F900FBE0F901F90189585
:101A6A00DC01B695A795B695A795B695A7958095E5
:101A7A0090958770992721E030E0F90102C0EE0FB6
:101A8A00FF1F8A95E2F7CF0141110FC093E1969F9C
:101A9A00F001979FF00D1124E050F04AEA0FF11D72
:101AAA0080952081822380830895413071F493E1E7
:101ABA00969FF001979FF00D1124E050F04AEA0F2B
:101ACA00F11D2081822B8083089593E1969FF00176
:101ADA00979FF00D1124E050F04AEA0FF11D80950E
:081AEA00908189238083089597
:101AF200FC01613089F4E11584E0F80768F5EF3FF5
:101B020083E0F80798F5309749F1CF0101978E23CA
:101B12009F23892B29F52AC001978034910510F55E
:101B22008E239F23892B01F521C0E930F10538F47A
:101B320090E00EC087E0FA01808380E0089528E0FB
:101B420030E090E09F5F220F331F2E173F07D0F344
:101B5200FA01908380E008958FEF08958FEF089542
:101B62008FEF08958FEF08958FEF0895EF3F83E091
:061B7200F807D9F6DFCFF1
:101B78001F920F920FB60F9211242F933F934F93FA
:101B88005F936F937F938F939F93AF93BF93EF93DD
:101B9800FF931D9B05C0E091E578F091E6780995E3
:101BA8001C9B05C0E091E378F091E47809951E9BB1
:101BB80005C0E091E178F091E27809951F9B05C096
:101BC800E091DB78F091DC7809958FEF83B9FF918C
:101BD800EF91BF91AF919F918F917F916F915F919D
:101BE8004F913F912F910F900FBE0F901F90189516
:101BF800CF93C82FE0E2F8E7108A118A148A158A71
:101C0800148615861086118668EF76E780E00E94B4
:101C1800A31568EF76E780E00E94CF10811126C0F7
:101C280093E090933877C13089F4E0E0FCE0938545
:101C380092FDFDCF92E09093420CE0E0FCE09385AA
:101C480092FDFDCF90E49093420C10C0E0E0FCE0E0
:101C5800938592FDFDCF92E09093400CE0E0FCE08C
:101C6800938592FDFDCF90E49093400CCF91089519
:101C7800282F2F7730E023303105ACF588237CF00E
:101C8800E0E0FCE0938592FDFDCFF901EE0FFF1F28
:101C9800EE0FFF1FEF5BF34F92E090830EC0E0E082
:101CA800FCE0938592FDFDCFF901EE0FFF1FEE0FCB
:101CB800FF1FED5BF34F92E09083220F331F880FD5
:101CC800211D311DF901EE0FFF1F220F331F220FB7
:101CD800331F220F331FE20FF31FEC51F84882E045
:0A1CE800808380E008958EEF0895D8
:101CF2000F931F9388EB98E70E947F17811115C0FD
:101D020080914F810E94231581110FC04091BA78B2
:101D12005091BB7804EB17E121E068EF75E7809101
:101D22004F810E94660F81111CC080EC98E70E94CF
:101D320077168034910590F080914E810E94231590
:101D420081110EC00EE412E120E040E450E064EAAA
:101D520077E780914E810E949D0F03C080E001C011
:081D620080E01F910F9108952C
:101D6A00282F2F7730E023303105A4F588237CF023
:101D7A00E0E0FCE0938592FDFDCFF901EE0FFF1F35
:101D8A00EE0FFF1FE05CF34F90E290830EC0E0E09D
:101D9A00FCE0938592FDFDCFF901EE0FFF1FEE0FD8
:101DAA00FF1FEE5BF34F90E29083220F331F880FE1
:101DBA00211D311DF901EE0FFF1F220F331F220FC4
:101DCA00331F220F331FE20FF31FEC51F848108222
:081DDA0080E008958EEF0895EA
:101DE200FC019081892F8F71813059F599237CF400
:101DF2009076903241F58181813239F540E050E0B0
:101E020067E070E088EC98E70E94EC1608959076FF
:101E12009032E9F48181803219F0823251F019C096
:101E220040E050E067E070E088EC98E70E94EC1632
:101E32000895828193818093EB789093EC7880E08F
:101E4200089582E0089582E0089582E0089582E094
:061E5200089582E00895EE
:101E5800E82FEF77A0E0BCE01B969C911B9792FDC2
:101E6800FBCFF0E0DF01AA0FBB1FAA0FBB1FAE5BC1
:101E7800B34F98E09C93A0E0BCE01B969C911B9705
:101E880092FDFBCFDF01AA0FBB1FAA0FBB1FA05CEF
:101E9800B34F98E09C93E295F295F07FFE27E07FA0
:101EA800FE27E05EF74897859B7F978797819B7F02
:101EB8009783982F9F7719F40E940B0C08950E941E
:041EC8003C0E08952F
:101ECC00CF92DF92EF92FF920F931F93CF93DF93FA
:101EDC00C82F6B017A01D22F0E94231581111DC0CE
:101EEC008C2F0E94D40F811119C0B6018C2F0E9427
:101EFC00A315B7018C2F0E94BB158C2F0E941B16AB
:101F0C00DD2319F08C2F0E945311B8018C2F0E94E5
:101F1C0033168C2F0E94EB0201C086EFDF91CF911C
:0E1F2C001F910F91FF90EF90DF90CF900895DE
:101F3A00CF92DF92EF92FF920F931F93CF93DF938B
:101F4A00C82F6B017A01D22F0E94231581111DC05F
:101F5A008C2F0E94D40F811119C0B6018C2F0E94B8
:101F6A00A315B7018C2F0E94BB158C2F0E941B163C
:101F7A00DD2319F08C2F0E945311B8018C2F0E9477
:101F8A0033168C2F0E94DB0401C086EFDF91CF91BC
:0E1F9A001F910F91FF90EF90DF90CF90089570
:101FA800482F4F7750E09A01220F331FF90187FD20
:101FB8003196CF01433051052CF5EE0FFF1F880FE6
:101FC800991F880F991F880F991FE80FF91FDF01C4
:101FD800AC51B8481C9212961D921C9213971496F5
:101FE8001D921C92159716961D921C92179718967B
:101FF8001D921C921997EB51F84880818E7F80833F
:0820080080E008958EEF0895B9
:102010000F931F93CF93DF93EC018981843019F5DF
:102020001C81112311F1062F81E09881C90FD11D68
:1020300099819530A9F4002341F04B8143706C8164
:102040007D818A810E94A80008C08A810E944B1667
:1020500081110CC08A810E9419131150811106C090
:102060001111E3CF03C08FED01C080E0DF91CF916C
:062070001F910F9108957D
:10207600CF93DF93C0E0CF77D0E0D06840E060E454
:1020860070E08C2F0E94A800811122C040E060E41D
:1020960070E08D2F0E94A80081111AC068EF76E7C4
:1020A6008C2F0E94CF10811113C068EF76E78D2F19
:1020B6000E94CF1081110CC08C2F0E94D211811169
:1020C60007C08D2F0E94A811811102C01092387787
:0620D600DF91CF91089597
:1020DC001F93CF93DF9381E69BE00E9487180E94A9
:1020EC009F10C0E0D0E0D1110DC01C2F1F77812FA5
:1020FC000E94D40FD82F811105C01068812F0E9427
:10210C00D40FD82FCF5FCF77C33069F7D1110CC064
:10211C000E943B10D82F811107C00E940B0CD82FA6
:10212C00811102C00E944C188D2FDF91CF911F910D
:02213C00089504
:10213E00E0E0FCE080818068808380818061808324
:10214E0080818062808385818F61858384818F61A8
:10215E00848386E298E7868397838081807F82607E
:10216E0080838FEF8287838780E090E0FC01E29589
:10217E00F295F07FFE27E07FFE27E05EF74817829C
:10218E0016821786168601968330910579F7089583
:10219E00282F2F7730E02330310524F58823ACF03B
:1021AE00F901E55BFE47808183FF02C060FD1CC024
:1021BE0022953295307F3227207F3227F901E05E5B
:1021CE00F7486287738780E0089522953295307FB5
:1021DE003227207F3227F901E05EF748628B738B3E
:0C21EE0080E008958EEF08958AEF0895B8
:1021FA001F920F920FB60F9211242F933F934F9372
:10220A005F936F937F938F939F93AF93BF93EF9354
:10221A00FF937A9B05C0E091D978F091DA78099515
:10222A008FEF8FB9FF91EF91BF91AF919F918F91EE
:10223A007F916F915F914F913F912F910F900FBEB8
:06224A000F901F90189593
:10225000CF93DF930F92CDB7DEB70E94A2188823E9
:1022600019F00E9403081BC00E942E188823B1F0A9
:10227000CE0101960E94C912811111C089810E946C
:10228000B50E81110CC089818F7721F489810E945C
:10229000ED0305C089810E94CB0101C080E00F9051
:0622A000DF91CF910895CB
:1022A600E82FEF77882344F4AE2FB0E0A85BBE4753
:1022B6009C9191FD1FC007C0AE2FB0E0A85BBE4742
:1022C6009C9194FD17C0F0E0EE0FFF1FDF0187FD24
:1022D6001196CD01FD01EE0FFF1F880F991F880F84
:1022E600991F880F991FE80FF91FEB51F848808155
:0622F60081608083089561
:1022FC00282F2F7730E0220F331F982F990F211D95
:10230C00311DF901EE0FFF1FA901440F551F440F9A
:10231C00551F440F551FE40FF51FEC51F84800846E
:10232C00F185E02D309769F0D901AA0FBB1FA40FDE
:10233C00B51FAC51B84816964D915C9117976C919E
:04234C000995089552
:10235000282F2F7730E02330310514F5882384F0BF
:10236000E0E0FCE0838582FDFDCF220F331F220FCA
:10237000331FF901EF5BF34F81E0808380E0089524
:10238000E0E0FCE0838582FDFDCF220F331F220FAA
:10239000331FF901ED5BF34F81E0808380E0089506
:0423A0008EEF08951F
:1023A400282F2F7730E02330310514F5882384F06B
:1023B400E0E0FCE0838582FDFDCF220F331F220F76
:1023C400331FF901E05CF34F81E0808380E00895DE
:1023D400E0E0FCE0838582FDFDCF220F331F220F56
:1023E400331FF901EE5BF34F81E0808380E00895B1
:0423F4008EEF0895CB
:1023F8001F920F920FB60F9211242F933F934F9372
:102408005F936F937F938F939F93AF93BF93EF9354
:10241800FF93E091E978F091EA78309709F009950F
:10242800FF91EF91BF91AF919F918F917F916F91A4
:102438005F914F913F912F910F900FBE0F901F907A
:022448001895E5
:10244A001F920F920FB60F9211242F933F934F931F
:10245A005F936F937F938F939F93AF93BF93EF9302
:10246A00FF93E091E778F091E878309709F00995C1
:10247A00FF91EF91BF91AF919F918F917F916F9152
:10248A005F914F913F912F910F900FBE0F901F9028
:02249A00189593
:10249C00EF92FF920F931F93CF93DF9361111AC0AA
:1024AC007A0100E010E021E064EA77E780914F8147
:1024BC000E94660FE114F10469F0C4EAD7E78701C2
:1024CC000C551848699180EC98E70E945814C01775
:1024DC00D107C1F7DF91CF911F910F91FF90EF9032
:0224EC00089551
:1024EE00DC011196EC914E2F50E04A305105F8F474
:1024FE00FA01EC5BFF4F0C945E180E94391408959C
:10250E000E94C21808950E94C4180895FC01828189
:10251E000E94FC1708950E94450A08950E940F1705
:10252E000895DC0112968C910E94C617089582E0E0
:02253E000895FE
:10254000CF93DF93EC018C819D810E94CF178F7711
:1025500090E00397C4F48981813051F028F08330F2
:1025600059F08C3069F011C0CE010E9494140EC055
:10257000CE010E9440170AC0CE010E94611606C01B
:102580000E94B31603C08EEF01C082E0DF91CF91AD
:022590000895AC
:10259200CF93DF93EC010E942E188823D9F0E091AB
:1025A200050C0E2E000CFF0BEA5DF7489081292FD7
:1025B20022952F70422F50E0433051056CF48881F0
:1025C200807893FB992790F9822B90FB87F9888377
:1025D20080E003C085EF01C08EEFDF91CF910895B7
:1025E200E0E0F0E640E050E030E020E06FEFCA01CA
:1025F20087709927892B71F4313039F018F0323015
:1026020039F008C031E020E005C032E0262F02C0D8
:1026120030E020E0CF0143962193E817F907E1F774
:102622004F5F5F4FFC01483281E0580701F7089580
:10263200282F2F7730E023303105F4F4882374F00B
:1026420022953295307F3227207F3227F901E05ED2
:10265200F74887818F73878380E0089522953295AA
:10266200307F3227207F3227F901E05EF7488785E5
:0C2672008F73878780E008958EEF089535
:10267E00282F2F7730E023303105F4F4882374F0BF
:10268E0022953295307F3227207F3227F901E05E86
:10269E00F74887818460878380E00895229532957C
:1026AE00307F3227207F3227F901E05EF748878599
:0C26BE008460878780E008958EEF089507
:1026CA00282F2F7730E023303105F4F4882374F073
:1026DA0022953295307F3227207F3227F901E05E3A
:1026EA00F74887818B7F878380E00895229532950A
:1026FA00307F3227207F3227F901E05EF74887854D
:0C270A008B7F878780E008958EEF089594
:10271600282F2F7730E023303105F4F4882374F026
:1027260022953295307F3227207F3227F901E05EED
:10273600F748878182FB882780F90895229532958C
:10274600307F3227207F3227F901E05EF748878500
:0C27560082FB882780F9089580E0089538
:10276200CF93DF930F92CDB7DEB7FC012281338185
:10277200232B99F4268137812130310581F4BE0162
:102782006F5F7F4F84810E944E17811109C061E003
:10279200CE0101960E94071503C087ED01C087EDA7
:0827A2000F90DF91CF91089523
:1027AA000097A1F0DC01ED91FC911197309781F02F
:1027BA002181213079F41296ED91FC91139730978B
:1027CA0059F02181223051F082EE089582EE089567
:1027DA0082EE089582EE089582EE08958093ED7850
:0827EA009093EE7880E0089561
:1027F200FC01848195812281338128173907B1F048
:102802009C012F5F3F4F468157812417350710F0F7
:1028120020E030E040815181DA01A80FB91F8C918C
:10282200DB018C932483358380E008958EEF089535
:10283200DC0113969C911397903448F0E0918E78C6
:10284200F0918F78309771F0CD010995089590320B
:1028520058F0E0919078F0919178309739F0CD016D
:102862000995089582E0089582E0089582E008952E
:10287200CF93DF9300D0CDB7DEB719821A820E94C0
:10288200D817882319F08981816089830E94E11712
:10289200882319F089818260898362E0CE010196E2
:0E28A2000E9407150F900F90DF91CF910895BF
:1028B000FC01828193819C012F5F3F4F46815781AC
:1028C0002417350710F020E030E0448155812417AB
:1028D000350751F040815181DA01A80FB91F6C937F
:0C28E0002283338380E008958FEF089579
:1028EC00FC0191819630A1F018F4992331F014C0B9
:1028FC009A3031F09B3041F00FC00E94FE160895C3
:10290C00CF010E94B1130895CF010E947115089553
:0C291C00CF010E941914089582E0089574
:10292800CF93DF9300D0CDB7DEB7FC0184819581CA
:102938000E94CF1719821A820E948B13882319F0DC
:1029480089818160898362E0CE0101960E94071522
:0A2958000F900F90DF91CF910895CA
:10296200DB01ED91FC91119790E2823041F42181DB
:10297200223029F422813381E20FF31F03C0208128
:10298200E20FF11D2181821304C0ED93FC9380E0DC
:0A2992000895915051F78DED08955E
:10299C008091267886FF0AC0E0E0FCE0838582FD0A
:1029AC00FDCF80E48093400C81E001C080E09091E9
:1029BC002E7896FF09C08260E0E0FCE0938592FDE2
:0A29CC00FDCF90E49093420C0895B3
:1029D600CF93DF930E9452180E94F317C0E080E065
:1029E60081110BC0DC2FDF778D2F0E944B168111D2
:1029F60004C0D0688D2F0E944B16CF5FCF77C330AF
:082A060079F7DF91CF910895EB
:102A0E00CF93DF936134A0F4C62FBC01D0E0AE01AA
:102A1E0088EF96E70E94951788EF96E780933977AF
:102A2E0090933A77C0933B77D0933C7780E001C088
:082A3E008CEEDF91CF910895A9
:102A4600282F2F7730E0220F331FF90187FD3196AB
:102A5600CF01EE0FFF1F880F991F880F991F880F50
:102A6600991FE80FF91FEC51F84881E090819130E9
:062A760009F080E0089564
:102A7C0090913877923031F4813071F480E00E947B
:102A8C00FC0D089590913877913041F4823041F4E7
:102A9C0081E00E94FC0D089580E0089580E0089587
:042AAC0080E0089529
:102AB0009091400990FD13C0E82FF0E0EE0FFF1F4A
:102AC000EC5BFE478181A0E4B9E011968C931197ED
:102AD00012961C92129780818C9381E0089580E079
:022AE000089557
:102AE2001F93CF93DF93EC0141E06A818C810E94B6
:102AF200AA05182F811108C0E0918A78F0918B788D
:102B0200309711F0CE010995812FDF91CF911F915E
:022B1200089524
:102B1400009759F488EF96E78093397790933A7742
:102B24006115710541F480E007C080933977909373
:102B34003A7780E001C08CEE60933B7770933C77EA
:022B44000895F2
:102B4600282F2F7730E0220F331FF90187FD3196AA
:102B5600CF01EE0FFF1F880F991F880F991F880F4F
:102B6600991FE80FF91FEC51F848628373830895A3
:102B7600282F2F7730E0220F331FF90187FD31967A
:102B8600CF01EE0FFF1F880F991F880F991F880F1F
:102B9600991FE80FF91FEC51F8486483758308956F
:102BA600282F2F7730E0220F331FF90187FD31964A
:102BB600CF01EE0FFF1F880F991F880F991F880FEF
:102BC600991FE80FF91FEC51F84884819581089503
:102BD600282F2F7730E0220F331FF90187FD31961A
:102BE600CF01EE0FFF1F880F991F880F991F880FBF
:102BF600991FE80FF91FEC51F848868197810895CF
:102C0600282F2F7730E0220F331FF90187FD3196E9
:102C1600CF01EE0FFF1F880F991F880F991F880F8E
:102C2600991FE80FF91FEC51F848668377830895DA
:102C3600282F2F7730E0220F331FF90187FD3196B9
:102C4600CF01EE0FFF1F880F991F880F991F880F5E
:102C5600991FE80FF91FEC51F8481682178208955C
:102C6600282F2F7730E0220F331FF90187FD319689
:102C7600CF01EE0FFF1F880F991F880F991F880F2E
:102C8600991FE80FF91FEC51F8486087718708957E
:102C9600CF93DF93C82F0E942315882351F08C2FE2
:102CA6000E943C0ED82F811105C08C2F0E947E11E8
:0C2CB60001C0D0E08D2FDF91CF91089578
:102CC200CF93FC0122813381232B69F48481958186
:102CD2000E94CF17C82F0E944B16811105C08C2F5E
:0C2CE2000E943F1301C082E0CF910895D2
:102CEE00FC0142815381248135814217530740F004
:102CFE0086819781820F931F0197841B950B0895F0
:0A2D0E00C9010197841B950B08957D
:102D1800AA1BBB1B51E107C0AA1FBB1FA617B707F9
:102D280010F0A61BB70B881F991F5A95A9F7809515
:082D38009095BC01CD01089546
:102D40001092EB781092EC78E8ECF8E710821182A0
:102D5000128213821482158288E0868381EF9EE0BE
:062D60000E94781808959E
:102D6600CF93DF9300D0CDB7DEB70E945818898382
:102D76009A8362E0CE0101960E9407150F900F908C
:062D8600DF91CF910895DA
:102D8C008EEA98E70E94D5130E94BD1881E998E15C
:102D9C000E946E188CE898E10E9473180E946E10C5
:062DAC008093F478089505
:102DB200CF93DF93D62F0E945B1784E08093650444
:102DC200C0E8C09306048D2F0E94A017C09305048B
:062DD200DF91CF9108958E
:102DD8000F931F93CF93DF93EC018B01CA010E94DD
:102DE8008218B801CE010E948A15DF91CF911F91F8
:042DF8000F9108959A
:102DFC00CF93DF9300D0CDB7DEB719821A8262E091
:102E0C00CE0101960E9407150F900F90DF91CF9184
:022E1C00089517
:102E1E00CF93DF930F92CDB7DEB70E94AA178983A7
:102E2E0061E0CE0101960E9407150F90DF91CF91C0
:022E3E000895F5
:102E40008091F47881110AC00E9428118093F4784F
:102E5000811104C00E9406098093F4788091F4786F
:022E60000895D3
:102E62000E94070B0E94BA180E945A060E94131869
:0E2E72000E940C180E94C6160E946817089550
:102E8000FC0122813381232B39F4848195810E94B6
:0C2E9000CF170E946513089582E008959A
:102E9C00823048F4E82FF0E0E151F7488081FB01E3
:0A2EAC00808380E0089587ED08950B
:102EB600CF9394E090936604C0E8C09306040E9402
:0A2EC600A017C0930504CF910895F2
:102ED00040E068ED80E191E00E946918E0E1F1E0F6
:082EE0001282138280E00895C4
:102EE800009741F0E7E8F3E13197F1F700C00000FF
:062EF8000197C1F70895E7
:102EFE00FC0181E0428153812481358142175307C1
:062F0E0009F080E00895C7
:102F1400EC010E94D3180E94D218CE010E94D4184A
:062F2400CE010E94C61858
:102F2A00FB01DC01480F591FA417B50719F02191BD
:062F3A002D93FACF08956B
:102F400080934409E0E4F9E083818823ECF78091E1
:042F50004409089593
:102F5400E091F178F091F278309711F0858108953D
:042F640080E008956C
:102F6800611106C0E8EBF8E7128213821482158219
:022F78000895BA
:102F7A008091F3780E94041880E090E00E94821801
:022F8A000895A8
:102F8C009091F378992319F00E94870808958EEC9C
:022F9C00089596
:102F9E00282F2F7787FB992790F990FB27F9822FFF
:022FAE00089584
:102FB000E091F178F091F278878186FB882780F99B
:022FC000089572
:102FC200E091F178F091F278878185FB882780F98A
:022FD200089560
:102FD400E0E0FCE0828586958170928592FD8260B6
:022FE40008954E
:102FE600E0E0FCE080818F77808383818078838333
:022FF60008953C
:102FF8008093F3788DEB97E10E94821880E0089522
:10300800E0E0FCE0938190788F77892B83830895A3
:0E301800E0E4F9E01082118213821282089522
:0E302600E0E0FCE0108611860E9496180895E6
:0E3034000E94EB14811102C00E946E100895DC
:0E304200E0E0FCE082E0828784E0828708956F
:0C305000BC0180EC98E70E94F913089581
:0C305C0080910B0C85FB882780F90895FB
:0C30680080910A0C881F8827881F08959B
:0C30740080910A0C86FB882780F90895E3
:0C30800080910A0C85FB882780F90895D8
:0C308C0080910A0C83FB882780F90895CE
:0C309800E0E0FCE081818160818308950C
:0C30A400E0E0FCE081818E7F81830895D4
:0C30B000809156789091577897700895A1
:0C30BC00EE0FFF1F0590F491E02D099429
:0A30C8008F938FEF8BB98F9118954D
:0A30D2001BBEFC0164BF408308959B
:0A30DC008093E9789093EA78089554
:0A30E6008093E7789093E87808954E
:0A30F00080939078909391780895F2
:0A30FA0080910A0C82958170089500
:0A3104008093437790934477089579
:0A310E0080933F7790934077089577
:0A3118000E9406098093F4780895E0
:0A3122000E9428118093F4780895AC
:08312C008EEF8093060F089559
:0831340083E280930B0C089567
:08313C008EEF80930A0C089548
:0831440080910B0C81700895CD
:08314C0080E880930A0C08954D
:0831540080E180930A0C08954C
:08315C0080E480930A0C089541
:0831640080E280930A0C08953B
:08316C0088E080930A0C08952D
:063174001092060F089501
:06317A000E94A01608955A
:043180000C940000AB
:0431840081E0089549
:0431880081E0089545
:04318C000E94A000FD
:023190000895A0
:0231920008959E
:0231940008959C
:0231960008959A
:02319800089598
:02319A00089596
:02319C00089594
:02319E00089592
:0231A000089590
:0231A20008958E
:0231A40008958C
:0231A60008958A
:0231A800089588
:1031AA000000000000000000000000000000000015
:1031BA000000000000000000000000000000000005
:1031CA0000000000000000000000000000000000F5
:1031DA0000000000000000000000000000000000E5
:1031EA0000F8760000000000000000000000000067
:0631FA00000000000000CF
:1032000034034D006900630072006F0063006800C2
:1032100069007000200054006500630068006E00C3
:103220006F006C006F0067007900200049006E009D
:1032300063002E001E034500500061007000650011
:10324000720020004E0061006D0065007400610096
:06325000670004033100D9
:103256000902300002010080010904000001020297
:1032660000000705810340000109040100020A006D
:103276000000070582021000000705020240000058
:103286001201000202000040D804150B10010102D1
:02329600030132
:0A3298009C7858780000CF784E773C
:0832A200F87500000000800037
:0832AA007876000000008000AE
:0432B2000403090404
:0232B6009E1860
:0232B8009A1862
:02000004008278
:0C0000000000000000D008000000030019
:00000001FF
