:100000000C946F000C94761D0C94761D0C94761D48
:100010000C94761D0C94761D0C94761D0C94F8159A
:100020000C94CF150C94C50C0C94761D0C94761D75
:100030000C94761D0C94761D0C94761D0C94761DF4
:100040000C94761D0C94761D0C94761D0C94761DE4
:100050000C94761D0C94761D0C94210D0C94D014E8
:100060000C947D0D0C94761D0C94761D0C94761DCD
:100070000C94761D0C94761D0C94761D0C94011333
:100080000C9478140C944C1457165A1671165D166D
:10009000711660166516711668166B166000768804
:1000A0008076887734003B34773477E88077E87857
:1000B00018003BE07818786C80786C7898003C10D9
:1000C000789878A98078A978AD003C3C78AD78E53F
:1000D0008078E578E9003C4078E9790080008091FB
:1000E00001108F7C8060806898ED94BF8093011030
:1000F00011241FBECFEFCDBFDFE7DEBFECE9F0E09C
:1001000040E017C0B591A59135912591059107FD66
:100110000CC095918591EF01F92FE82F05900D9274
:10012000A217B307D9F7FE0104C01D92A217B307A7
:10013000E1F7ED3DF40731F70E94F1130C94F71B42
:04014000F894FFCF61
:100144004944004F4B0D0A004D4F44450053495A52
:02015400450064
:0401560023C435C4C5
:03015A002D24242D
:03015D002D24242A
:01016000029C
:01016100821B
:10016200FF920F931F93CF93DF930F92CDB7DEB71A
:10017200082FCB01142F202F2F77F22E1982AE01D8
:100182004F5F5F4F612F0E941010811100C12F2D10
:1001920030E0233031050CF0FCC0143008F0FBC015
:1001A200113041F018F0143060F408C08981806485
:1001B200898307C08981806C898303C089818068B3
:1001C200898300230CF46DC0E0E0FCE0838582FDAE
:1001D200FDCFF901EE0FFF1FEE0FFF1FEF5BF34F95
:1001E20082E08083E0E0FCE0838582FDFDCFF901BF
:1001F200EE0FFF1FEE0FFF1FE05CF34F8DEF8083CA
:10020200F901E295F295F07FFE27E07FFE27E055A7
:10021200F8481086118689818783F901E35AFE47DF
:10022200808183FF20C0F901E295F295F07FFE27DD
:10023200E07FFE27E055F848878180628783F901D5
:10024200E35AFE47808184FF16C0F901E295F295D8
:10025200F07FFE27E07FFE27E055F8488781806126
:10026200878380E00BC0F901E35AFE47808184FD59
:1002720004C080E003C080E001C08BEFF901E35AC3
:10028200FE47908195FD88C022953295307F3227B6
:10029200207F3227F901E055F848978198609783CB
:1002A2007BC0E0E0FCE0838582FDFDCFF901EE0F2B
:1002B200FF1FEE0FFF1FED5BF34F82E08083E0E054
:1002C200FCE0838582FDFDCFF901EE0FFF1FEE0FEB
:1002D200FF1FEE5BF34F8DEF8083F901E295F295FC
:1002E200F07FFE27E07FFE27E054F848108211825B
:1002F2008981F901E295F295F07FFE27E07FFE27E2
:10030200E055F8488787F901E35AFE47808180FF6C
:1003120020C0F901E295F295F07FFE27E07FFE27EB
:10032200E055F848878580628787F901E35AFE47DE
:10033200808181FF16C0F901E295F295F07FFE27D8
:10034200E07FFE27E055F84887858061878780E057
:100352000BC0F901E35AFE47808181FD04C080E0B1
:1003620003C080E001C08BEFF901E35AFE479081A0
:1003720092FD12C022953295307F3227207F32279C
:10038200F901E055F84897859860978705C08FEF87
:1003920003C08EEF01C08CEF0F90DF91CF911F91C0
:0603A2000F91FF90089589
:1003A800EF92FF920F931F93CF93DF93182F082F8D
:1003B8000F77202F30E0E901CC0FDD1F87FD219654
:1003C80088230CF061C0F901E295F295F07FFE27D1
:1003D800E07FFE27E055F848878585FF0CC0229509
:1003E8003295307F3227207F3227F901E055F848CF
:1003F800248935890BC022953295307F3227207F9A
:100408003227F901E054F84820813181CE01880F64
:10041800991F880F991F880F991FFE01EE0FFF1F64
:10042800E80FF91FEC58F84886819781820F931FCF
:1004380086839783248135818217930789F4CE01B7
:10044800880F991F880F991F880F991FFE01EE0FBB
:10045800FF1FE80FF91FEC58F848818180FF05C09D
:10046800812F0E94F402F82E84C0CE01880F991FB4
:10047800CC0FDD1FCC0FDD1FCC0FDD1FC80FD91F20
:10048800CC58D8481882A2C0F901E295F295F07FBD
:10049800FE27E07FFE27E055F848E084F184CE018E
:1004A800880F991F880F991F880F991FFE01EE0F5B
:1004B800FF1FE80FF91FEC58F848448155818681E1
:1004C8009781BA01681B790B6E157F0508F067C024
:1004D80022953295307F3227207F3227F901E05567
:1004E800F848E484F5846E157F0509F458C0CE01F8
:1004F800880F991FCC0FDD1FCC0FDD1FCC0FDD1F20
:10050800C80FD91FCC58D84883E088830F2EF5EF41
:10051800FF2EF02D3EC0CE01880F991F880F991F1E
:10052800880F991FFE01EE0FFF1FE80FF91FEC5807
:10053800F848818180FF0EC0812F0E94650CBC01A4
:10054800C7010E94B21A892B29F4812F0E94D50570
:10055800F82E0FC0CE01880F991FCC0FDD1FCC0FCE
:10056800DD1FCC0FDD1FC80FD91FCC58D848188203
:100578002DC0CE01880F991FCC0FDD1FCC0FDD1FBA
:10058800CC0FDD1FC80FD91FCC58D84888818130BF
:10059800F9F0812F8078802B0E94511519C08E0D9B
:1005A8009F1D9E01220F331F220F331F220F331F5F
:1005B800FE01EE0FFF1FE20FF31FEC58F848868389
:1005C80097838417950708F0A6CFB6CFF12CE1CF13
:1005D8008F2DDF91CF911F910F91FF90EF9008958C
:1005E800DF92EF92FF920F931F93CF93DF93082F21
:1005F8000F7710E0E801CC0FDD1F87FD21968823D7
:100608000CF0E7C09E01220F331F220F331F220F69
:10061800331FFE01EE0FFF1FE20FF31FEC58F848DF
:1006280091E09083E480F58026813781E21AF30A0D
:1006380009F057C0CE01880F991F880F991F880F9E
:10064800991FFE01EE0FFF1FE80FF91FEC58F8483D
:10065800818180FF36C0F801E295F295F07FFE2790
:10066800E07FFE27E054F84810821182F801E295F5
:10067800F295F07FFE27E07FFE27E055F848148AC0
:10068800158AE0E0FCE0838582FDFDCF000F111F95
:10069800000F111FF801EE5BF34F82E08083CE015B
:1006A800880F991FCC0FDD1FCC0FDD1FCC0FDD1F6E
:1006B800C80FD91FCB58D84888818E7F888380E09F
:1006C80089C0CE01880F991FCC0FDD1FCC0FDD1F0D
:1006D800CC0FDD1FC80FD91FCC58D848188280E02E
:1006E80079C0D82E0E94650CBC01F801E65AFE4775
:1006F800808180FD03C06E157F0568F1CE01880FEB
:10070800991F880F991F880F991FFE01EE0FFF1F71
:10071800E80FF91FEC58F848818180FF08C0C7012D
:100728000E94B21A21E0892B19F020E001C020E0D4
:10073800CE01880F991F880F991F880F991FFE01F6
:10074800EE0FFF1FE80FF91FEB58F848808120FBD8
:1007580080F9808301C07B01CE01880F991FCC0FDF
:10076800DD1FCC0FDD1FCC0FDD1FC80FD91FCC58E4
:10077800D8486A817B818E819F81680F791F8D2D72
:100788000E94C313811126C0F801E295F295F07F0B
:10079800FE27E07FFE27E054F848E082F182F80166
:1007A800E295F295F07FFE27E07FFE27E055F848B6
:1007B800148A158AE0E0FCE0938592FDFDCF000FD6
:1007C800111F000F111FF801EE5BF34F92E09083A9
:1007D80001C08DEFDF91CF911F910F91FF90EF90A6
:0407E800DF90089501
:1007EC00CF93DF9380E094E028E8FC012483C0E4FD
:1007FC00D4E01C82A0E6B4E014961C92149740EA54
:10080C0054E030E1FA0134833BEDFC01308338E0F5
:10081C0038833FEF3C93FA013083FC01108A118A34
:10082C00128A138A148A158A168A178A188A198AC0
:10083C001A8A1B8A1C8A1D8A1E8A1F8A50961C9231
:10084C00509751961C92519752961C9252975396D0
:10085C001C92539754961C92549755961C925597EC
:10086C0056961C92569757961C92FA01108A118A2A
:10087C00128A138A80E8848B158A268B178AE0EEFD
:10088C00F5E0118210821582178210861682128270
:10089C008EE79DE18093E3789093E4788FE79DE178
:1008AC008093E1789093E27880E89DE18093DF7803
:1008BC009093E07881E89DE18093DD789093DE78E9
:1008CC0082E89DE18093DB789093DC7883E89DE16E
:1008DC008093D9789093DA7884E89DE18093D778E7
:1008EC009093D87885E89DE18093D5789093D678CD
:1008FC0086E89DE18093D3789093D47887E89DE146
:10090C008093D1789093D27888E89DE18093CF78CA
:10091C009093D07889E89DE18093CD789093CE78B0
:10092C008AE89DE18093CB789093CC788BE89DE11D
:10093C008093C9789093CA788CE89DE18093C778AE
:10094C009093C8788DE89DE18093C5789093C67894
:10095C008EE89DE18093C3789093C4788FE89DE1F5
:10096C008093C1789093C27880E99DE18093BF78A1
:10097C009093C07881E99DE18093BD789093BE7887
:10098C0082E99DE18093BB789093BC7883E99DE1EB
:10099C008093B9789093BA7884E99DE18093B77885
:1009AC009093B87885E99DE18093B5789093B6786B
:1009BC0086E99DE18093B3789093B478DF91CF91E1
:0209CC0008958C
:1009CE000F931F93CF93DF93C82F8F7709F0DDC05E
:1009DE00182F8C2F0E947B15D82F8111D9C0809192
:1009EE00C876813009F45FC008F4CBC0823021F0A4
:1009FE00833009F4BBC0CBC0C0688C2F0E94E519B0
:100A0E0020E1129FF0011124E055F8480489158960
:100A1E00080F191FC068B8018C2F0E94FD19C068FD
:100A2E008C2F0E94CD190817190779F5EDECF6E712
:100A3E0080819181080F191F008311838091CB76DD
:100A4E009091CC760817190729F480E00E94531074
:100A5E00D82F20C0E091D176F091D276309779F0F0
:100A6E00099581110CC0C0688C2F0E94151A6091D7
:100A7E00CB767091CC76C0688C2F0E94B5198C2FD6
:100A8E0080680E94F402D82F05C08C2F80680E94C7
:100A9E00F402D82FE0E0FCE0838582FDFDCF80E4F8
:100AAE008093420C75C0CF778C2F0E94E51920E100
:100ABE00129FF0011124E055F84800851185080FAA
:100ACE00191FCF77B8018C2F0E94FD19CF778C2F6D
:100ADE000E94CD1908171907D9F5EDECF6E78081BC
:100AEE009181080F191F008311838091CB7690910D
:100AFE00CC760817190729F481E00E945310D82FDD
:100B0E002CC0E091D176F091D2763097A9F009956C
:100B1E00811112C0CF778C2F0E94151A6091CB765F
:100B2E007091CC76CF778C2F0E94B5198C2F8F7742
:100B3E000E94F402D82F11C084E08093C876E0EBB7
:100B4E00F7E787858460878787818460878305C000
:100B5E008C2F8F770E94D505D82FE0E0FCE083859F
:100B6E0082FDFDCF80E48093400C12C0E091D376DD
:100B7E00F091D476309709F009950E947C0FD82F0A
:100B8E0007C00E947C0FD82F03C0DEEF01C0DBEE42
:0C0B9E008D2FDF91CF911F910F910895D2
:100BAA00CF92DF92EF92FF920F931F93CF93DF932F
:100BBA00E82FEF77EE2EF12CE701CC0FDD1F87FD32
:100BCA00219688230CF4ADC0C82ECE01880F991F38
:100BDA00880F991F880F991F8E01000F111F080F88
:100BEA00191F0C58184881E0F801808362817381CB
:100BFA0086819781680F791F8C2D0E94C313D82E86
:100C0A008C2D0E94650CBC01F801248135818681F6
:100C1A009781281B390BF701E65AFE47808183FD2D
:100C2A0020C02617370768F4F701E295F295F07F9E
:100C3A00FE27E07FFE27E055F84887818062878398
:100C4A0010C06217730708F49B01F701E295F29549
:100C5A00F07FFE27E07FFE27E055F84887818F7DE9
:100C6A00878321153105A9F4CE01880F991FCC0F6E
:100C7A00DD1FCC0FDD1FCC0FDD1FC80FD91FFE01F2
:100C8A00EB58F84880818E7F8083CC58D8481882E8
:100C9A002CC0CE01880F991F880F991F880F991FA2
:100CAA00FE01EE0FFF1FE80FF91FEC58F84881818B
:100CBA0080FF09C0C9010E94B21A41E0892B09F0DC
:100CCA0040E0842F01C080E0AE01440F551FCC0FD5
:100CDA00DD1FCC0FDD1FCC0FDD1FC40FD51FCB5876
:100CEA00D848988180FB90F99883F701E295F295AC
:100CFA00F07FFE27E07FFE27E055F8481086118630
:100D0A0024873587E0E0FCE0838582FDFDCFF7018B
:100D1A00EE0FFF1FEE0FFF1FE05CF34F82E08083B0
:100D2A0004C00F2EFDEFDF2EF02D8D2DDF91CF9118
:0E0D3A001F910F91FF90EF90DF90CF900895E2
:100D48008F929F92AF92BF92CF92DF92EF92FF92D3
:100D58000F931F93CF93DF9300D0CDB7DEB7E09109
:100D6800EF78F091F078309709F46DC0A42E962EA4
:100D7800B82EE983FA83028113810E0F1F1FBE016B
:100D88006F5F7F4F84E00E947A18882E811177C0A8
:100D9800E981FA81E017F10708F06CC0C12CD12C69
:100DA8008B2D90E09C0123513748790192819B114A
:100DB80010C0D7019C91838198130BC060E0CF01CC
:100DC8000E949B12811105C0B1E0BB1510F0F7011C
:100DD8001082AA2009F445C0E981FA818281B812FB
:100DE80037C08381891134C06F0132C0C114D10466
:100DF800F1F009831A8340C0811141C0E981FA8169
:100E0800E017F10798F238C0C114D10491F061E0FD
:100E1800C6010E949B12882E811132C0F1E0FB1599
:100E280068F0EB2DF0E0E351F748908229C0882E56
:100E380027C00F2EFDED8F2EF02D22C00F2EF8EDBE
:100E48008F2EF02D1DC00F2EF2EE8F2EF02D18C014
:100E5800BE016F5F7F4F84E00E947A188D3D61F676
:100E6800C5CFBE016F5F7F4F84E00E947A188D3D29
:100E780019F6BFCFC12CD12CA110C6CF01C0882E26
:100E8800882D0F900F90DF91CF911F910F91FF90B8
:100E9800EF90DF90CF90BF90AF909F908F90089584
:100EA8006F927F928F929F92AF92BF92CF92DF9272
:100EB800EF92FF920F931F93CF93DF9380E10E94ED
:100EC800671B81E0809305040E943A1DEC01D695CA
:100ED800C795D695C795D695C7950E943F1D5C01C5
:100EE800892BC9F476C0812C912CF6016082B80157
:100EF800C4010E94451A0E940D1CF7017082FFEF81
:100F08008F1A9F0AC815D90581F70F5F1F4FA016C2
:100F1800B10699F445C000E010E00F2EF6E0CF2EA0
:100F2800F4E0DF2EF02D6894772473F8672C0F2EE9
:100F3800F5E0EF2EF4E0FF2EF02D2097A1F6E5CF97
:100F4800812C912CF6016082B801C4010E943F18DF
:100F58000E940D1CF7017082FFEF8F1A9F0AC815B7
:100F6800D90581F70F5F1F4FA016B10619F020971A
:100F780039F7F8CF129BFECF84E00E94671B129BC3
:100F8800FECF82E10E94671B129BFECF82E00E9487
:100F9800671B129BFECF86E990E00E94D61B20C0FB
:100FA80083E10E94671B81E08093050400E010E064
:100FB8000F2EF6E0CF2EF4E0DF2EF02D6894772484
:100FC80073F8672C0F2EF5E0EF2EF4E0FF2EF02DCE
:100FD800CECF83E10E94671B81E080930504CACFCE
:100FE800DF91CF911F910F91FF90EF90DF90CF90FD
:0E0FF800BF90AF909F908F907F906F90089564
:101006000F931F93CF93DF93833029F49091FF784A
:10101600923049F409C0823039F49091FF789111E9
:1010260003C081E001C080E00091F1781091F27870
:10103600C091F378D091F478482FB801CE010E9480
:101046009F0B8091FE78813049F138F0823009F4A7
:1010560041C0833009F45FC078C001151105B9F4A9
:101066008091F5789091F67801978093F178909336
:10107600F2788091F7789091F878C817D90709F433
:1010860064C02196C093F378D093F4785EC0015083
:1010960011090093F1781093F27857C08091F57892
:1010A6009091F67801970817190769F41092F1786C
:1010B6001092F278209709F448C02197C093F378EC
:1010C600D093F47842C00F5F1F4F0093F1781093CE
:1010D600F2783BC08091F7789091F8780197C8171D
:1010E600D90799F41092F3781092F4788091F578F4
:1010F6009091F67801970817190739F10F5F1F4F7E
:101106000093F1781093F27820C02196C093F3787B
:10111600D093F4781AC0209799F48091F77890913B
:10112600F87801978093F3789093F4780115110578
:1011360061F0015011090093F1781093F27805C01F
:101146002197C093F378D093F478DF91CF911F91D4
:041156000F91089558
:10115A00EF92FF921F93CF93DF93CDB7DEB7269717
:10116A00CDBFDEBF85E090E00E94D61B0F2EF5E0D2
:10117A00EF2EF4E0FF2EF02D12E0F701108385E048
:10118A0090E00E94D61B109306048AE090E00E9429
:10119A00D61BF701108385E090E00E94D61B6EE013
:1011AA0080E00E94A41485E090E00E94D61B8FEC98
:1011BA00898389E88A8382E40E94771BE0E8F0E168
:1011CA00268137810480F581E02DC901861B970BA2
:1011DA00A0E0B0E08B839C83AD83BE832B813C81EE
:1011EA004D815E81DF010E94EC1B6B837C838D83C2
:1011FA009E838B819C81AD81BE819E5FAF4FBF4F25
:10120A008B839C83AD83BE838B819C81AD81BE81A0
:10121A00072E7AE0B695A795979587957A95D1F78F
:10122A00702D8B839C83AD83BE838B819C81AD8122
:10123A00BE81BC016151714085EE0E94A41462E036
:10124A0080EE0E94A41442E050E0BE016F5F7F4F1F
:10125A0080E00E94CA0F2696CDBFDEBFDF91CF91F4
:08126A001F91FF90EF90089521
:10127200EF92FF920F931F93CF93DF9300D0CDB7DE
:10128200DEB7962F8A017901883040F4863008F063
:101292005EC0813031F08230C9F03FC08F3049F1F9
:1012A2003CC0E091EB78F091EC78309709F459C0AA
:1012B20080819181DA018D939C930190F081E02DE0
:1012C200808190E0F9018083918349C0BE016F5F04
:1012D2007F4F892F0E94890E81113AC0E981FA81DC
:1012E200D801ED93FC9382819381F70180839183EE
:1012F20036C0E091EB78F091EC788481958100978B
:1013020091F1DA018D939C930480F581E02D828125
:101312009381F9018083918322C0803230F1209140
:10132200EF783091F07829833A83BE016F5F7F4F67
:101332000E947A1881110CC0E981FA81D801ED93DB
:10134200FC93808190E0F7018083918308C082E062
:10135200D8011D921C92F7011082118208C080E010
:1013620006C082EEF5CF82E0F3CF8EEDF1CF0F9083
:101372000F90DF91CF911F910F91FF90EF90089501
:10138200CF9381E080930B0C8091C876843009F46E
:1013920076C0E0E0FCE0838582FDFDCF80E18093B2
:1013A200400CE0E0FCE0838582FDFDCF80E180938C
:1013B200420CE0EBF7E7108A118A148A158A148628
:1013C20015861086118688E0E8E8F6E7A5EDB6E70F
:1013D20001900D928A95E1F7E091CF76F091D07667
:1013E200309709F44EC085ED96E70995823069F48D
:1013F20084E08093C876E0EBF7E78785846087878F
:1014020087818460878380E03DC081113BC08091E9
:10141200CB769091CC76892B21F481E00E945310F7
:1014220031C01092CD761092CE76C0E0C068809125
:10143200D576882324F482E08093C8760BC060912D
:10144200C9767091CA768C2F0E94C313CF7781E040
:101452008093C8768C2F0E94151A6091C97670917C
:10146200CA768C2F0E949D196091CB767091CC76B2
:101472008C2F0E94B5198C2F0E94E70403C080E0D4
:0814820001C08AEECF9108952C
:10148A00FF920F931F93CF93DF9300D0CDB7DEB7B0
:10149A002091EB783091EC78232B09F460C0F82E78
:1014AA00E091EF78F091F078309709F45CC0E98325
:1014BA00FA830481002309F456C0BE016F5F7F4F8F
:1014CA0084E00E947A18182F811150C0A981BA812C
:1014DA0012968C911297E82FF0E0E351F748208199
:1014EA0013969C91291308C040E060E00E94A4066C
:1014FA00182F015081113AC00111DFCF34C0109268
:10150A00EF781092F07810E031C06FEE78E78F2D07
:10151A000E94890E182F811129C0E091EF78F0916D
:10152A00F078E983FA830481002301F1BE016F5F39
:10153A007F4F84E00E947A18182F811117C0E98121
:10154A00FA818381811108C041E060E082810E94B2
:10155A00A4060150811105C00111E8CF07C012EE9F
:10156A0005C0182F03C0FF2051F2CFCF812F0F9053
:0E157A000F90DF91CF911F910F91FF90089578
:10158800CF93DF930E94D71C882349F00E94581DEF
:10159800E0916478F0916578309709F009950E9498
:1015A800211D882321F10E945C1DE0916678F0914D
:1015B8006778309709F00995D0E0C0E080E0D068FE
:1015C80081114AC0D0788C2F8F77D82B8D2F0E940D
:1015D8005D1ADF77811103C08D2F0E945D1ACF5FDE
:1015E800CF77C33061F70E94A91CC82F01C0C0E0A3
:1015F8000E94601C882359F00E94B01C0E94971812
:10160800882321F00E940719C82F01C0C0E00E945A
:10161800DD1C882349F00E94601DE0916878F091F4
:101628006978309709F009950E94E31C882349F0EE
:101638000E94641DE0916A78F0916B78309709F008
:1016480009950E94E91C882349F00E94681D80E0E2
:101658000E94BF11C82F02C0DF77C1CF8C2FDF9146
:04166800CF91089581
:10166C00CF92DF92EF92FF920F931F93CF93DF9362
:10167C0000D0CDB7DEB70091EB781091EC78D801A3
:10168C001696ED91FC911797309709F444C0882376
:10169C0041F00280F381E02D6E177F0789F082E024
:1016AC003DC0DA01ED93FC93D8011696ED91FC91B7
:1016BC001797808190E0F9018083918380E02EC0A0
:1016CC00D80118966D917C9119976115710529F1C6
:1016DC0079016A01082F69837A83813071F0C8F02F
:1016EC0011E0BE016F5F7F4F83E00E947A181F5F8D
:1016FC000113F7CF811112C001C080E0E981FA819A
:10170C00D601ED93FC93208130E0F70120833183E7
:10171C0005C081E003C082E001C082EE0F900F9003
:10172C00DF91CF911F910F91FF90EF90DF90CF90B1
:02173C0008950E
:10173E00FC01E095F095E770FF2721E030E002C054
:10174E00220F331FEA95E2F7E091F778F091F878DF
:10175E00F695E795F695E795F695E795DC01B6953E
:10176E00A795B695A795B695A795E69FC001E79F55
:10177E00900DF69F900D11248A0F911DA091F57872
:10178E00B091F678EA9FB001EB9F700DFA9F700D45
:10179E001124680F791F41110EC02095FC01E050F5
:1017AE00F04A808182238083FB01E050F04A8081E1
:1017BE00282320830895413071F4FC01E050F04A53
:1017CE008081822B8083FB01E050F04A209580813E
:1017DE00282320830895423071F4FC01E050F04A32
:1017EE00822F8095908189238083FB01E050F04AFF
:0817FE008081282B208308954F
:101806000F931F93CF93DF9300D000D0CDB7DEB7F1
:101816008C01DC011296EC91129713968C91803410
:1018260050F0E0915E78F0915F78309709F43FC010
:10183600C80109953FC0803248F0E0916078F09188
:1018460061783097B1F1C801099534C01B821C82BA
:1018560019821A82833079F4D80114966D917C919D
:1018660015979E012F5F3F4FAE014D5F5F4F8E2F45
:101876000E94360B09C09E012F5F3F4FAE014D5FA0
:101886005F4F6E2F0E943909811114C0F8018681BD
:10189600978129813A818217930710F489839A8365
:1018A60069817A818B819C810E94531903C082E0F1
:1018B60001C082E02496CDBFDEBFDF91CF911F919C
:0418C6000F910895E1
:1018CA00982F9F7788233CF1892F90E0FC01E295BD
:1018DA00F295F07FFE27E07FFE27E055F848278142
:1018EA00207C203C61F482959295907F9827807F96
:1018FA009827FC01E055F8489781977032C0829585
:10190A009295907F9827807F9827FC01E055F848A8
:10191A009781937026C0892F90E0FC01E295F29599
:10192A00F07FFE27E07FFE27E055F8482785207CD8
:10193A00203C61F482959295907F9827807F982722
:10194A00FC01E055F848978597700BC082959295EF
:10195A00907F9827807F9827FC01E055F848978563
:10196A009370973051F028E030E0A90102C0440F8B
:10197A00551F9A95E2F7CA0108958FEF93E00895EB
:10198A001F920F920FB60F9211242F933F934F93EA
:10199A005F936F937F938F939F93AF93BF93EF93CD
:1019AA00FF931D9B05C0E091E378F091E4780995D7
:1019BA001C9B05C0E091E178F091E27809951E9BA5
:1019CA0005C0E091DF78F091E07809951A9B05C08F
:1019DA00E091DD78F091DE780995189B05C0E091D9
:1019EA00DB78F091DC780995199B05C0E091D978EC
:1019FA00F091DA7809951B9B05C0E091D778F091B0
:101A0A00D87809951F9B05C0E091D578F091D678D2
:101A1A0009958FEF83B9FF91EF91BF91AF919F9194
:101A2A008F917F916F915F914F913F912F910F907D
:081A3A000FBE0F901F901895DC
:101A42001F920F920FB60F9211242F933F934F9331
:101A52005F936F937F938F939F93AF93BF93EF9314
:101A6200FF93789B05C0E091D178F091D2780995E7
:101A7200799B05C0E091CF78F091D07809957A9B57
:101A820005C0E091CD78F091CE7809957B9B05C099
:101A9200E091CB78F091CC7809957C9B05C0E091E0
:101AA200C978F091CA7809957D9B05C0E091C77805
:101AB200F091C87809957E9B05C0E091C578F091B8
:101AC200C67809957F9B05C0E091C378F091C478F0
:101AD20009958FEF8FB9FF91EF91BF91AF919F91D0
:101AE2008F917F916F915F914F913F912F910F90C5
:081AF2000FBE0F901F90189524
:101AFA001F920F920FB60F9211242F933F934F9379
:101B0A005F936F937F938F939F93AF93BF93EF935B
:101B1A00FF93B89B05C0E091C178F091C27809950E
:101B2A00B99B05C0E091BF78F091C0780995BA9B3E
:101B3A0005C0E091BD78F091BE780995BB9B05C0C0
:101B4A00E091BB78F091BC780995BC9B05C0E09107
:101B5A00B978F091BA780995BD9B05C0E091B7783C
:101B6A00F091B8780995BE9B05C0E091B578F091DF
:101B7A00B6780995BF9B05C0E091B378F091B47827
:101B8A0009958FEF87BBFF91EF91BF91AF919F911D
:101B9A008F917F916F915F914F913F912F910F900C
:081BAA000FBE0F901F9018956B
:101BB20040E068ED80E690E00E940D1D40E068ED97
:101BC20081E690E00E940D1D40E068ED85E690E020
:101BD2000E940D1D40E068ED88E790E00E940D1D17
:101BE20040E268ED88E690E00E940D1D40E068ED5D
:101BF20089E690E00E940D1D40E068ED8AE690E0E3
:101C02000E940D1D40E068ED8CE790E00E940D1DE2
:101C120040E068ED82E690E00E940D1D40E068ED34
:101C220083E690E00E940D1D40E068ED84E690E0BE
:101C32000E940D1D40E068ED80E890E00E940D1DBD
:101C420040E068ED85E890E00E940D1D44E168EDFA
:101C520086E690E00E940D1DE0E6F0E0858181FFBE
:041C6200FDCF089515
:101C6600CF93DF93EC019881892F807659F59923DC
:101C760024F48E819F81892BD9F160E070E080E0A9
:101C860090E00E94531988818F71813071F028F09D
:101C9600823039F0833069F02DC0CE010E944A1699
:101CA60032C0CE010E9473162EC0CE010E942118AA
:101CB6002AC0E0916278F09163783097E9F0CE011E
:101CC600099521C0803249F4E0916078F0916178FD
:101CD6003097A1F0CE01099516C0803489F4E091C1
:101CE6005E78F0915F78309769F0CE0109950BC068
:101CF60089EE09C082E007C082E005C082E003C029
:0C1D060082E001C082E0DF91CF910895DF
:101D1200EF92FF920F931F93CF93DF9300D0CDB733
:101D2200DEB7E091EB78F091EC78A081B181519629
:101D32009C919817B8F1913039F482819381DB013B
:101D42008D939C9380E02FC07B01082F8281938129
:101D520089839A830190F081E02D118981E013C07B
:101D6200E981FA819581091751F0BE016F5F7F4FBA
:101D720082E00E947A18811105C0115004C010E05F
:101D820080E001C010E01111EBCF81110CC0E9819C
:101D9200FA819581091304C0D701ED93FC9303C026
:101DA2008DED01C081EE0F900F90DF91CF911F91C9
:081DB2000F91FF90EF900895DE
:101DBA008091FE788130A1F028F0823021F18330C1
:101DCA0059F13DC01092F3781092F4788091F57829
:101DDA009091F67801978093F1789093F27808952C
:101DEA008091F7789091F87801978093F37890939F
:101DFA00F4788091F5789091F67801978093F1784C
:101E0A009093F27808951092F3781092F4781092E1
:101E1A00F1781092F27808958091F5789091F67899
:101E2A0001978093F1789093F2788091F778909166
:101E3A00F87801978093F3789093F4780895109244
:101E4A00F3781092F4781092F1781092F27808955B
:101E5A009FE9980F9A3108F480529091FC7891305A
:101E6A0079F118F09230D1F108958A3331F481E092
:101E7A008093FC781092FB780895823521F482E0F1
:101E8A000E9403080895873521F480E00E94030820
:101E9A000895823421F481E00E9403080895893567
:101EAA0021F483E00E9403080895833221F481E03B
:101EBA008093FD7808958032C9F40E94DD0E08955A
:101ECA008A3031F481E08093FB781092FC7808958F
:101EDA00682F8FE998E70E949E1A089591E09093DF
:0E1EEA00FB78682F8FE998E70E949E1A0895F2
:101EF800CF93DF93C0E0CF778C2F0E949310D82F19
:101F0800811140C080E80E949310D82F81113AC0F7
:101F1800E0E0FCE0838582FDFDCF8DEF8093400CEF
:101F2800E0E0FCE0838582FDFDCF8DEF8093420CDD
:101F380068E876E78C2F0E949D1968E070E08C2F86
:101F48000E94B5198C2F0E94151A60E070E08C2F42
:101F58000E942D1AE0EBF7E7108A118A148A158A75
:101F680014861586108611861092D3761092D47630
:101F78001092D1761092D2761092CB761092CC76BF
:0C1F88001092C8768D2FDF91CF91089544
:101F9400AF92BF92CF92DF92EF92FF920F931F9373
:101FA400CF93DF937B018A0190E19093A504E6E04F
:101FB400F4E0C1E0C083D8E0D0830E940D1CE5E0CA
:101FC400F4E0D083C08301151105E9F0E7010E0D9B
:101FD4001F1D0F2EF6E0AF2EF4E0BF2EF02D6894F7
:101FE400FF24F3F8EF2C0F2EF5E0CF2EF4E0DF2ED4
:101FF400F02DF501E08289910E940D1CF601F0821A
:10200400C017D107B1F7DF91CF911F910F91FF90C6
:0C201400EF90DF90CF90BF90AF90089548
:10202000FC01613089F4E11584E0F80768F5EF3FC1
:1020300083E0F80798F5309749F1CF0101978E2397
:102040009F23892B29F52AC001978034910510F52B
:102050008E239F23892B01F521C0E930F10538F447
:1020600090E00EC087E0FA01808380E0089528E0C8
:1020700030E090E09F5F220F331F2E173F07D0F311
:10208000FA01908380E008958FEF08958FEF08950F
:102090008FEF08958FEF08958FEF0895EF3F83E05E
:0620A000F807D9F6DFCFBE
:1020A600CF93C82FE0EBF7E7108A118A148A158AB6
:1020B600148615861086118668E876E780E00E9409
:1020C6009D1968E876E780E00E94C313811126C057
:1020D60093E09093C876C13089F4E0E0FCE0938504
:1020E60092FDFDCF92E09093420CE0E0FCE09385F8
:1020F60092FDFDCF90E49093420C10C0E0E0FCE02E
:10210600938592FDFDCF92E09093400CE0E0FCE0D9
:10211600938592FDFDCF90E49093400CCF91089566
:10212600282F2F7730E023303105ACF588237CF05B
:10213600E0E0FCE0938592FDFDCFF901EE0FFF1F75
:10214600EE0FFF1FEF5BF34F92E090830EC0E0E0CF
:10215600FCE0938592FDFDCFF901EE0FFF1FEE0F18
:10216600FF1FED5BF34F92E09083220F331F880F22
:10217600211D311DF901EE0FFF1F220F331F220F04
:10218600331F220F331FE20FF31FEC58F84882E08B
:0A219600808380E008958EEF089525
:1021A0000F931F9388E898E70E94E11B811115C0E7
:1021B000809161810E94EC1881110FC040918A7852
:1021C00050918B780AE21CE121E068E875E7809184
:1021D00061810E94F91181111CC080E998E70E9479
:1021E000891A8034910590F0809160810E94EC18EA
:1021F00081110EC001E216E120E040E450E064E30A
:1022000077E7809160810E94301203C080E001C0B6
:0822100080E01F910F91089579
:10221800282F2F7730E023303105A4F588237CF070
:10222800E0E0FCE0938592FDFDCFF901EE0FFF1F82
:10223800EE0FFF1FE05CF34F90E290830EC0E0E0EA
:10224800FCE0938592FDFDCFF901EE0FFF1FEE0F25
:10225800FF1FEE5BF34F90E29083220F331F880F2E
:10226800211D311DF901EE0FFF1F220F331F220F11
:10227800331F220F331FE20FF31FEC58F848108268
:0822880080E008958EEF089537
:10229000CF938091FD78882319F0813021F132C0ED
:1022A0008091FB78882371F164E471E88FE998E705
:1022B0000E949313882321F087E491E80E94011D76
:1022C0006CE471E88FE998E70E949313811106C0CE
:1022D00061E571E88FE998E70E9493138FE998E729
:1022E0000E946C1D0FC0C4E0C093A5040E94B418E6
:1022F0000E94AD080E9454070E943213C093A604A6
:082300001092FD78CF910895C1
:10230800FC019081892F8F71813059F599237CF4D4
:102318009076903241F58181813239F540E050E084
:1023280067E070E088E998E70E94FF1A08959076C0
:102338009032E9F48181803219F0823251F019C06B
:1023480040E050E067E070E088E998E70E94FF1AF3
:102358000895828193818093E9789093EA7880E068
:10236800089582E0089582E0089582E0089582E069
:06237800089582E00895C3
:10237E00E82FEF77A0E0BCE01B969C911B9792FD97
:10238E00FBCFF0E0DF01AA0FBB1FAA0FBB1FAE5B96
:10239E00B34F98E09C93A0E0BCE01B969C911B97DA
:1023AE0092FDFBCFDF01AA0FBB1FAA0FBB1FA05CC4
:1023BE00B34F98E09C93E295F295F07FFE27E07F75
:1023CE00FE27E055F84897859B7F978797819B7FDF
:1023DE009783982F9F7719F40E947C0F08950E947F
:0423EE0093100895AB
:1023F200CF92DF92EF92FF920F931F93CF93DF93CF
:10240200C82F6B017A01D22F0E94EC1881111DC0D6
:102412008C2F0E946712811119C0B6018C2F0E9465
:102422009D19B7018C2F0E94B5198C2F0E94151A85
:10243200DD2319F08C2F0E942615B8018C2F0E94E3
:102442002D1A8C2F0E94F40201C086EFDF91CF91EA
:0E2452001F910F91FF90EF90DF90CF900895B3
:10246000CF92DF92EF92FF920F931F93CF93DF9360
:10247000C82F6B017A01D22F0E94EC1881111DC068
:102480008C2F0E946712811119C0B6018C2F0E94F7
:102490009D19B7018C2F0E94B5198C2F0E94151A17
:1024A000DD2319F08C2F0E942615B8018C2F0E9475
:1024B0002D1A8C2F0E94D50501C086EFDF91CF9198
:0E24C0001F910F91FF90EF90DF90CF90089545
:1024CE00482F4F7750E09A01220F331FF90187FDF5
:1024DE003196CF01433051052CF5EE0FFF1F880FBB
:1024EE00991F880F991F880F991FE80FF91FDF0199
:1024FE00AC58B8481C9212961D921C9213971496C3
:10250E001D921C92159716961D921C92179718964F
:10251E001D921C921997EB58F84880818E7F80830C
:08252E0080E008958EEF08958E
:102536000F931F93CF93DF93EC018981843019F5B4
:102546001C81112311F1062F81E09881C90FD11D3D
:1025560099819530A9F4002341F04B8143706C8139
:102566007D818A810E94B10008C08A810E945D1A1D
:1025760081110CC08A810E94C4161150811106C0B7
:102586001111E3CF03C08FED01C080E0DF91CF9141
:062596001F910F91089552
:10259C00CF93DF93C0E0CF77D0E0D06840E060E429
:1025AC0070E08C2F0E94B100811122C040E060E4E9
:1025BC0070E08D2F0E94B10081111AC068E876E797
:1025CC008C2F0E94C313811113C068E876E78D2FFE
:1025DC000E94C31381110CC08C2F0E94A515811170
:1025EC0007C08D2F0E947B15811102C01092C876F6
:0625FC00DF91CF9108956C
:102602001F920F920FB60F9211242F933F934F9365
:102612005F936F937F938F939F93AF93BF93EF9348
:10262200FF93E0E0F6E080E2878380E1878388E041
:102632008783E091AD78F091AE78309709F00995F3
:10264200FF91EF91BF91AF919F918F917F916F9188
:102652005F914F913F912F910F900FBE0F901F905E
:022662001895C9
:102664001F93CF93DF9383E39EE00E942B1D0E9470
:102674006313C0E0D0E0D1110DC01C2F1F77812F50
:102684000E946712D82F811105C01068812F0E9403
:102694006712D82FCF5FCF77C33069F7D1110CC041
:1026A4000E94CE12D82F811107C00E947C0FD82F10
:1026B400811102C00E94EF1C8D2FDF91CF911F91D9
:0226C400089577
:1026C600E0E0FCE080818068808380818061808397
:1026D60080818062808385818F61858384818F611B
:1026E600848386EB97E7868397838081807F8260E9
:1026F60080838FEF8287838780E090E0FC01E295FC
:10270600F295F07FFE27E07FFE27E055F848178216
:1027160016821786168601968330910579F70895F5
:10272600CF93DF93EC01FB019B815C81951711F13F
:102736006881798120E0DB01A90FB11D3C91DF01A1
:10274600A20FB11D4C91341302C02F5F04C021E0CB
:102756008081831320E0DF01A20FB11D3C9133235A
:1027660059F09F5F3A81931301C090E09513E3CF30
:1027760080E003C080E001C081E0DF91CF91089541
:10278600282F2F7730E02330310524F58823ACF04D
:10279600F901E35AFE47808183FF02C060FD1CC039
:1027A60022953295307F3227207F3227F901E05576
:1027B600F8486287738780E0089522953295307FC6
:1027C6003227207F3227F901E055F848628B738B58
:0C27D60080E008958EEF08958AEF0895CA
:1027E200CF93DF930F92CDB7DEB70E94231B80E019
:1027F2000E9421190E94931C0E948B1C0E94111B93
:102802000E94B4180E943213811103C081E08093A8
:10281200A504789419820E94D0100E94561B03C00E
:1028220089810E942D0FCE0101960E94C51C88232A
:0C283200B9F30E9448110E946C19EDCF10
:10283E00EF92FF920F931F93CF93DF93EC01FB0167
:10284E0090819923C9F07B0110E000E08C81E88132
:10285E00F981E80FF11D9083CE010E94721C9C81BC
:10286E008B81981301C001E01F5FF701E10FF11D8D
:10287E0090819111EBCF01C000E0802FDF91CF91BD
:0A288E001F910F91FF90EF90089545
:102898001F920F920FB60F9211242F933F934F93CD
:1028A8005F936F937F938F939F93AF93BF93EF93B0
:1028B800FF9382E080930706E091B178F091B278B7
:1028C800309709F00995FF91EF91BF91AF919F91D2
:1028D8008F917F916F915F914F913F912F910F90C1
:0828E8000FBE0F901F90189520
:1028F0001F920F920FB60F9211242F933F934F9375
:102900005F936F937F938F939F93AF93BF93EF9357
:10291000FF9381E080930706E091AF78F091B07863
:10292000309709F00995FF91EF91BF91AF919F9179
:102930008F917F916F915F914F913F912F910F9068
:082940000FBE0F901F901895C7
:10294800DF92EF92FF920F931F93CF93DF93D62ED0
:1029580090E19093A5040F2EF6E0EF2EF4E0FF2E01
:10296800F02DD1E0F701D083C8E0C0830E940D1C90
:1029780005E014E0F801C083D083F701C0838D2DF2
:102988000E940D1CF801C083DF91CF911F910F9118
:08299800FF90EF90DF9008951D
:1029A0001F920F920FB60F9211242F933F934F93C4
:1029B0005F936F937F938F939F93AF93BF93EF93A7
:1029C000FF935B9B05C0E091D378F091D478099593
:1029D0008FEF8BB9FF91EF91BF91AF919F918F9145
:1029E0007F916F915F914F913F912F910F900FBE0B
:0629F0000F901F901895E6
:1029F600CF93DF930F92CDB7DEB70E94541D882385
:102A060019F00E94C1091BC00E94D11C8823B1F095
:102A1600CE0101960E949C16811111C089810E94E7
:102A26000C1181110CC089818F7721F489810E9454
:102A3600E70405C089810E94D40101C080E00F909F
:062A4600DF91CF9108951D
:102A4C00E82FEF77882344F4AE2FB0E0A65ABE47A8
:102A5C009C9191FD1FC007C0AE2FB0E0A65ABE4797
:102A6C009C9194FD17C0F0E0EE0FFF1FDF0187FD76
:102A7C001196CD01FD01EE0FFF1F880F991F880FD6
:102A8C00991F880F991FE80FF91FEB58F8488081A0
:062A9C00816080830895B3
:102AA200282F2F7730E0220F331F982F990F211DE7
:102AB200311DF901EE0FFF1FA901440F551F440FED
:102AC200551F440F551FE40FF51FEC58F8480084BA
:102AD200F185E02D309769F0D901AA0FBB1FA40F31
:102AE200B51FAC58B84816964D915C9117976C91EA
:042AF20009950895A5
:102AF600282F2F7730E02330310514F5882384F012
:102B0600E0E0FCE0838582FDFDCF220F331F220F1C
:102B1600331FF901EF5BF34F81E0808380E0089576
:102B2600E0E0FCE0838582FDFDCF220F331F220FFC
:102B3600331FF901ED5BF34F81E0808380E0089558
:042B46008EEF089571
:102B4A00282F2F7730E02330310514F5882384F0BD
:102B5A00E0E0FCE0838582FDFDCF220F331F220FC8
:102B6A00331FF901E05CF34F81E0808380E0089530
:102B7A00E0E0FCE0838582FDFDCF220F331F220FA8
:102B8A00331FF901EE5BF34F81E0808380E0089503
:042B9A008EEF08951D
:102B9E001F920F920FB60F9211242F933F934F93C4
:102BAE005F936F937F938F939F93AF93BF93EF93A7
:102BBE00FF93E091E778F091E878309709F0099566
:102BCE00FF91EF91BF91AF919F918F917F916F91F7
:102BDE005F914F913F912F910F900FBE0F901F90CD
:022BEE00189538
:102BF0001F920F920FB60F9211242F933F934F9372
:102C00005F936F937F938F939F93AF93BF93EF9354
:102C1000FF93E091E578F091E678309709F0099517
:102C2000FF91EF91BF91AF919F918F917F916F91A4
:102C30005F914F913F912F910F900FBE0F901F907A
:022C40001895E5
:102C4200EF92FF920F931F93CF93DF9361111AC0FC
:102C52007A0100E010E021E064E377E7809161818E
:102C62000E94F911E114F10469F0C4E3D7E7870186
:102C72000C5C1848699180E998E70E940318C01714
:102C8200D107C1F7DF91CF911F910F91FF90EF9084
:022C92000895A3
:102C9400DC011196EC914E2F50E04A305105F8F4C6
:102CA400FA01EC5BFF4F0C94071D0E94E417089592
:102CB4000E94781D08950E947A1D0895FC01828166
:102CC4000E947B1C08950E94030C08950E94451BDA
:102CD4000895DC0112968C910E943C1C089582E0B8
:022CE400089551
:102CE600CF93DF93EC018C819D810E94451C8F77E9
:102CF60090E00397C4F48981813051F028F0833045
:102D060059F08C3069F011C0CE010E945D180EC0DA
:102D1600CE010E94951B0AC0CE010E94731A06C0FE
:102D26000E94D91A03C08EEF01C082E0DF91CF91D5
:022D36000895FE
:102D3800CF93DF93EC010E94D11C8823D9F0E09156
:102D4800050C0E2E000CFF0BEA54F8489081292F31
:102D580022952F70422F50E0433051056CF4888142
:102D6800807893FB992790F9822B90FB87F98883C9
:102D780080E003C085EF01C08EEFDF91CF91089509
:102D8800282F2F7730E023303105F4F4882374F0AE
:102D980022953295307F3227207F3227F901E0557E
:102DA800F84887818F73878380E00895229532954C
:102DB800307F3227207F3227F901E055F848878590
:0C2DC8008F73878780E008958EEF0895D8
:102DD400282F2F7730E023303105F4F4882374F062
:102DE40022953295307F3227207F3227F901E05532
:102DF400F84887818460878380E00895229532951E
:102E0400307F3227207F3227F901E055F848878543
:0C2E14008460878780E008958EEF0895A9
:102E2000282F2F7730E023303105F4F4882374F015
:102E300022953295307F3227207F3227F901E055E5
:102E4000F84887818B7F878380E0089522953295AB
:102E5000307F3227207F3227F901E055F8488785F7
:0C2E60008B7F878780E008958EEF089537
:102E6C00282F2F7730E023303105F4F4882374F0C9
:102E7C0022953295307F3227207F3227F901E05599
:102E8C00F848878182FB882780F90895229532952E
:102E9C00307F3227207F3227F901E055F8488785AB
:0C2EAC0082FB882780F9089580E00895DB
:102EB800CF93DF930F92CDB7DEB7FC012281338128
:102EC800232B99F4268137812130310581F4BE0105
:102ED8006F5F7F4F84810E94B11B811109C061E03F
:102EE800CE0101960E94D01803C087ED01C087ED7E
:082EF8000F90DF91CF910895C6
:102F00000097A1F0DC01ED91FC911197309781F0D1
:102F10002181213079F41296ED91FC91139730972D
:102F200059F02181223051F082EE089582EE089509
:102F300082EE089582EE089582EE08958093EB78F4
:082F40009093EC7880E0089505
:102F4800FC01848195812281338128173907B1F0EA
:102F58009C012F5F3F4F468157812417350710F09A
:102F680020E030E040815181DA01A80FB91F8C912F
:102F7800DB018C932483358380E008958EEF0895D8
:102F8800DC0113969C911397903448F0E0915E7899
:102F9800F0915F78309771F0CD01099508959032DE
:102FA80058F0E0916078F0916178309739F0CD0170
:102FB8000995089582E0089582E0089582E00895D1
:102FC800CF93DF9300D0CDB7DEB719821A820E9463
:102FD8004E1C882319F08981816089830E94571CBF
:102FE800882319F089818260898362E0CE01019685
:0E2FF8000E94D0180F900F90DF91CF91089596
:10300600FC01828193819C012F5F3F4F468157814E
:103016002417350710F020E030E04481558124174D
:10302600350751F040815181DA01A80FB91F6C9321
:0C3036002283338380E008958FEF08951B
:10304200FC0191819630A1F018F4992331F014C05B
:103052009A3031F09B3041F00FC00E94341B08952A
:10306200CF010E945C170895CF010E943A1908957A
:0C307200CF010E94C417089582E0089569
:10307E004091F7785091F878569547955695479523
:10308E00569547952091F5783091F678620F731F1B
:10309E00469F9001479F300D569F300D1124805052
:0C30AE00904AFC01E20FF31F808108959E
:1030BA00CF93DF9300D0CDB7DEB7FC018481958131
:1030CA000E94451C19821A820E943617882319F019
:1030DA0089818160898362E0CE0101960E94D018BD
:0A30EA000F900F90DF91CF91089531
:1030F400DB01ED91FC91119790E2823041F4218142
:10310400223029F422813381E20FF31F03C020818E
:10311400E20FF11D2181821304C0ED93FC9380E042
:0A3124000895915051F78DED0895C4
:10312E008091B67786FF0AC0E0E0FCE0838582FDE1
:10313E00FDCF80E48093400C81E001C080E090914F
:10314E00BE7796FF09C08260E0E0FCE0938592FDB9
:0A315E00FDCF90E49093420C089519
:10316800CF93DF930E94F51C0E94691CC0E080E0A9
:1031780081110BC0DC2FDF778D2F0E945D1A811122
:1031880004C0D0688D2F0E945D1ACF5FCF77C330FF
:0831980079F7DF91CF91089552
:1031A000CF93DF936134A0F4C62FBC01D0E0AE0111
:1031B00088E896E70E94021C88E896E78093C97623
:1031C0009093CA76C093CB76D093CC7680E001C042
:0831D0008CEEDF91CF91089510
:1031D800282F2F7730E0220F331FF90187FD319612
:1031E800CF01EE0FFF1F880F991F880F991F880FB7
:1031F800991FE80FF91FEC58F84881E09081913049
:0632080009F080E00895CA
:10320E009091C876923031F4813071F480E00E9452
:10321E00531008959091C876913041F4823041F464
:10322E0081E00E945310089580E0089580E0089593
:04323E0080E008958F
:103242009091400990FD13C0E82FF0E0EE0FFF1FB0
:10325200EA5AFE478181A0E4B9E011968C93119756
:1032620012961C92129780818C9381E0089580E0DF
:023272000895BD
:103274001F93CF93DF93EC0141E06A818C810E941C
:10328400A406182F811108C0E0915A78F0915B7858
:10329400309711F0CE010995812FDF91CF911F91C5
:0232A40008958B
:1032A600009759F488E896E78093C9769093CA7692
:1032B6006115710541F480E007C08093C97690934B
:1032C600CA7680E001C08CEE6093CB767093CC76A4
:0232D600089559
:1032D80084EA98E70E94BE1C811112C084EA98E72C
:1032E8000E94A31B0E94CB1C81110AC084EA98E7A4
:1032F8000E94CA1B84EA98E70E94BE1C882371F3C7
:02330800089526
:10330A00E0E0F6E084E08183158285E0828313821F
:10331A0086E48483118681E18287168282E4838728
:10332A00128A138A108A118A81E0808380E00895C4
:10333A00282F2F7730E0220F331FF90187FD3196AE
:10334A00CF01EE0FFF1F880F991F880F991F880F53
:10335A00991FE80FF91FEC58F848628373830895A0
:10336A00282F2F7730E0220F331FF90187FD31967E
:10337A00CF01EE0FFF1F880F991F880F991F880F23
:10338A00991FE80FF91FEC58F8486483758308956C
:10339A00282F2F7730E0220F331FF90187FD31964E
:1033AA00CF01EE0FFF1F880F991F880F991F880FF3
:1033BA00991FE80FF91FEC58F84884819581089500
:1033CA00282F2F7730E0220F331FF90187FD31961E
:1033DA00CF01EE0FFF1F880F991F880F991F880FC3
:1033EA00991FE80FF91FEC58F848868197810895CC
:1033FA00282F2F7730E0220F331FF90187FD3196EE
:10340A00CF01EE0FFF1F880F991F880F991F880F92
:10341A00991FE80FF91FEC58F848668377830895D7
:10342A00282F2F7730E0220F331FF90187FD3196BD
:10343A00CF01EE0FFF1F880F991F880F991F880F62
:10344A00991FE80FF91FEC58F84816821782089559
:10345A00282F2F7730E0220F331FF90187FD31968D
:10346A00CF01EE0FFF1F880F991F880F991F880F32
:10347A00991FE80FF91FEC58F8486087718708957B
:10348A004091F7785091F878569547955695479513
:10349A0056954795469F9001479F300D569F300D90
:1034AA0011248050904AFC01E20FF31F8081089595
:1034BA00CF93DF93C82F0E94EC18882351F08C2FEA
:1034CA000E949310D82F811105C08C2F0E9451158C
:0C34DA0001C0D0E08D2FDF91CF9108954C
:1034E600CF93FC0122813381232B69F4848195815A
:1034F6000E94451CC82F0E945D1A811105C08C2FA1
:0C3506000E94EA1601C082E0CF910895F7
:10351200FC0142815381248135814217530740F0D7
:1035220086819781820F931F0197841B950B0895C3
:0A353200C9010197841B950B089551
:10353C00CF93DF93EC018C81E881F981E80FF11DC9
:10354C006083CE010E94721C81E02C819B81291327
:08355C0080E0DF91CF9108959A
:10356400AA1BBB1B51E107C0AA1FBB1FA617B707A5
:1035740010F0A61BB70B881F991F5A95A9F78095C1
:083584009095BC01CD010895F2
:10358C001092E9781092EA78E8E9F8E71082118253
:10359C00128213821482158288E0868384E891E17A
:0635AC000E941C1D0895A1
:1035B200CF93DF9300D0CDB7DEB70E94FB1C898387
:1035C2009A8362E0CE0101960E94D0180F900F906C
:0635D200DF91CF91089586
:1035D8008EE798E70E9480170E94731D85E39DE19E
:1035E8000E94121D80E39DE10E94171D0E94321364
:0635F8008093FA780895AB
:1035FE000F931F93CF93DF93EC018B01CA010E94AF
:10360E00261DB801CE010E945319DF91CF911F9153
:04361E000F9108956B
:1036220088E690E08093F7789093F87884ED90E0C4
:103632008093F5789093F67881E08093FF781092EA
:04364200FE78089571
:103646000E94D90D0E94701D0E94F6030E94A21CC2
:103656000E9485190E949B1C0E94EC1A0E94BE1BA8
:023666000895C5
:10366800CF93DF9300D0CDB7DEB719821A8262E01C
:10367800CE0101960E94D0180F900F90DF91CF9144
:023688000895A3
:10368A00CF93DF930F92CDB7DEB70E94171C8983C1
:10369A0061E0CE0101960E94D0180F90DF91CF9180
:0236AA00089581
:1036AC008091FA7881110AC00E94FB148093FA78F9
:1036BC00811104C00E94C40A8093FA788091FA7830
:0236CC0008955F
:1036CE00CF9390E19093A504E6E0F4E091E090832F
:1036DE00C8E0C0830E940D1CC0930504CF910895CD
:1036EE000E94211C0E94441D8823E1F3E0E0F6E0D5
:0E36FE006485758581E0878380E090E0089503
:10370C00A29FB001B39FC001A39F700D811D112416
:0E371C00911DB29F700D811D1124911D089505
:10372A00FC0122813381232B39F4848195810E9403
:0C373A00451C0E941017089582E00895BD
:10374600FC0183819481981739F00190F081E02D76
:0C375600E80FF11D8081089580E00895C7
:10376200823048F4E82FF0E0E351F7488081FB0112
:0A377200808380E0089587ED08953C
:10377C0040E068ED80E191E00E940D1DE0E1F1E098
:08378C001282138280E008950F
:10379400FC0193818481981731F09F5F9383828128
:0837A400981708F01382089544
:1037AC00009741F0E7E8F3E13197F1F700C0000032
:0637BC000197C1F708951A
:1037C200FC0181E0428153812481358142175307F4
:0637D20009F080E00895FB
:1037D8000E94861BA59F900DB49F900DA49F800DFD
:0637E800911D112408955B
:1037EE00EC010E94981D0E94971DCE010E94991D0A
:0637FE00CE010E947C1DBB
:10380400FB01DC01480F591FA417B50719F02191DA
:063814002D93FACF089588
:10381A0080934409E0E4F9E083818823ECF78091FE
:04382A0044090895B0
:10382E00E091EF78F091F078309711F0858108955E
:04383E0080E0089589
:10384200E0E0F6E09385892B838782858160828719
:023852000895D7
:10385400611106C0E8E8F8E7128213821482158227
:023864000895C5
:103866008091F9780E94831C80E090E00E94261DDA
:023876000895B3
:103878009091F978992319F00E94450A08958EECE1
:023888000895A1
:10388A00282F2F7787FB992790F990FB27F9822F0A
:02389A0008958F
:10389C00E091EF78F091F078878186FB882780F9AA
:0238AC0008957D
:1038AE00E091EF78F091F078878185FB882780F999
:0238BE0008956B
:1038C000E0E0FCE0828586958170928592FD8260C1
:0238D000089559
:1038D200E0E0FCE080818F7780838381807883833E
:0238E200089547
:1038E400FC0194819F5F94838281981301C01482A8
:0238F400089535
:1038F6008093F97883E39CE10E94261D80E0089579
:10390600E0E0FCE0938190788F77892B838308959C
:1039160040E268E178E78FE998E70E94B71C0895CE
:1039260040E268E378E784EA98E70E94B71C0895C6
:0E393600E0E4F9E010821182138212820895FB
:0E394400E0E0FCE0108611860E94481D089508
:0E3952000E94B418811102C00E943213089521
:0E396000E0E0FCE082E0828784E08287089548
:0E396E00FC01608371834283138214820895EA
:0E397C00FC0181E023819481291380E00895ED
:0C398A00BC0180E998E70E94A417089592
:0C399600682F88E898E70E940318089545
:0C39A20080910B0C85FB882780F90895AC
:0C39AE0080910A0C881F8827881F08954C
:0C39BA0080910A0C86FB882780F9089594
:0C39C60080910A0C85FB882780F9089589
:0C39D20080910A0C83FB882780F908957F
:0C39DE00E0E0FCE08181816081830895BD
:0C39EA00E0E0FCE081818E7F8183089585
:0C39F6008091E6779091E7779770089534
:0C3A0200BC0184EA98E70E941F1408959C
:0C3A0E00EE0FFF1F0590F491E02D0994CD
:0A3A1A001BBEFC0164BF4083089549
:0A3A24008093E7789093E878089506
:0A3A2E008093E5789093E678089500
:0A3A38008093607890936178089500
:0A3A420080910A0C829581700895AE
:0A3A4C008093D3769093D47608950A
:0A3A56008093CF769093D076089508
:0A3A60000E94C40A8093FA780895CA
:0A3A6A000E94FB148093FA7808957F
:0A3A74008091F7789091F87808959A
:0A3A7E008091F5789091F678089594
:083A880080910706817008958A
:083A90008EEF8093060F0895EC
:083A980083E280930B0C0895FA
:083AA0008EEF80930A0C0895DB
:083AA80080910B0C8170089560
:083AB00080E880930A0C0895E0
:083AB80080E180930A0C0895DF
:083AC00080E480930A0C0895D4
:083AC80080E280930A0C0895CE
:083AD00088E080930A0C0895C0
:083AD800FC0124812383089501
:063AE0001092060F08958C
:063AE6000E94C61A0895BB
:043AEC000C94000036
:043AF00081E00895D4
:043AF40081E00895D0
:043AF8000E94A00088
:023AFC0008952B
:023AFE00089529
:023B0000089526
:023B0200089524
:023B0400089522
:023B0600089520
:023B080008951E
:023B0A0008951C
:023B0C0008951A
:023B0E00089518
:023B1000089516
:023B1200089514
:023B1400089512
:023B1600089510
:023B180008950E
:023B1A0008950C
:023B1C0008950A
:023B1E00089508
:023B2000089506
:023B2200089504
:023B2400089502
:023B2600089500
:023B28000895FE
:023B2A000895FC
:023B2C000895FA
:023B2E000895F8
:023B30000895F6
:023B32000895F4
:103B34000000000000000000000000000000000081
:103B44000000000000000000000000000000000071
:103B54000000000000000000000000000000000061
:103B64000000000000000000000000000000000051
:103B74000088760000000000000000000000000043
:063B84000000000000003B
:103B8A0034034D006900630072006F00630068002F
:103B9A0069007000200054006500630068006E0030
:103BAA006F006C006F0067007900200049006E000A
:103BBA0063002E001E03450050006100700065007E
:103BCA00720020004E0061006D0065007400610003
:063BDA0067000403310046
:103BE0000902300002010080010904000001020204
:103BF00000000705810340000109040100020A00DA
:103C000000000705820210000007050202400000C4
:103C10001201000202000040D804150B100101023D
:023C200003019E
:0A3C22006C78E8770000A978DE76E0
:083C2C00887500000000800013
:083C340008760000000080008A
:043C3C000403090470
:023C4000501D15
:023C42004C1D17
:02000004008278
:0C0000000000000000D008000000030019
:00000001FF
